{
  "contracts/OpenAiSimpleLLM.sol": {
    "OpenAiSimpleLLM": {
      "abi": [
        {
          "inputs": [
            {
              "internalType": "address",
              "name": "initialOracleAddress",
              "type": "address"
            }
          ],
          "stateMutability": "nonpayable",
          "type": "constructor"
        },
        {
          "inputs": [
            {
              "internalType": "uint256",
              "name": "",
              "type": "uint256"
            }
          ],
          "name": "getMessageHistory",
          "outputs": [
            {
              "components": [
                {
                  "internalType": "string",
                  "name": "role",
                  "type": "string"
                },
                {
                  "components": [
                    {
                      "internalType": "string",
                      "name": "contentType",
                      "type": "string"
                    },
                    {
                      "internalType": "string",
                      "name": "value",
                      "type": "string"
                    }
                  ],
                  "internalType": "struct IOracle.Content[]",
                  "name": "content",
                  "type": "tuple[]"
                }
              ],
              "internalType": "struct IOracle.Message[]",
              "name": "",
              "type": "tuple[]"
            }
          ],
          "stateMutability": "view",
          "type": "function"
        },
        {
          "inputs": [],
          "name": "message",
          "outputs": [
            {
              "internalType": "string",
              "name": "role",
              "type": "string"
            }
          ],
          "stateMutability": "view",
          "type": "function"
        },
        {
          "inputs": [
            {
              "internalType": "uint256",
              "name": "runId",
              "type": "uint256"
            },
            {
              "components": [
                {
                  "internalType": "string",
                  "name": "id",
                  "type": "string"
                },
                {
                  "internalType": "string",
                  "name": "content",
                  "type": "string"
                },
                {
                  "internalType": "string",
                  "name": "functionName",
                  "type": "string"
                },
                {
                  "internalType": "string",
                  "name": "functionArguments",
                  "type": "string"
                },
                {
                  "internalType": "uint64",
                  "name": "created",
                  "type": "uint64"
                },
                {
                  "internalType": "string",
                  "name": "model",
                  "type": "string"
                },
                {
                  "internalType": "string",
                  "name": "systemFingerprint",
                  "type": "string"
                },
                {
                  "internalType": "string",
                  "name": "object",
                  "type": "string"
                },
                {
                  "internalType": "uint32",
                  "name": "completionTokens",
                  "type": "uint32"
                },
                {
                  "internalType": "uint32",
                  "name": "promptTokens",
                  "type": "uint32"
                },
                {
                  "internalType": "uint32",
                  "name": "totalTokens",
                  "type": "uint32"
                }
              ],
              "internalType": "struct IOracle.OpenAiResponse",
              "name": "_response",
              "type": "tuple"
            },
            {
              "internalType": "string",
              "name": "_errorMessage",
              "type": "string"
            }
          ],
          "name": "onOracleOpenAiLlmResponse",
          "outputs": [],
          "stateMutability": "nonpayable",
          "type": "function"
        },
        {
          "inputs": [],
          "name": "response",
          "outputs": [
            {
              "internalType": "string",
              "name": "",
              "type": "string"
            }
          ],
          "stateMutability": "view",
          "type": "function"
        },
        {
          "inputs": [
            {
              "internalType": "string",
              "name": "_message",
              "type": "string"
            }
          ],
          "name": "sendMessage",
          "outputs": [],
          "stateMutability": "nonpayable",
          "type": "function"
        }
      ],
      "evm": {
        "bytecode": {
          "linkReferences": {},
          "object": "60803462000b6157601f6200220a38819003918201601f19168301916001600160401b03831184841017620005c35780849260209460405283398101031262000b6157516001600160a01b0381169081900362000b6157600080546001600160a01b0319169190911790556040516101a081016001600160401b03811182821017620005c3576040526200009262000b66565b600b81526a6770742d342d747572626f60a81b6020820152815260156020820152620000bd62000b86565b6000815260408201526103e8606082015260156080820152620000df62000b66565b600f908181526e7b2274797065223a2274657874227d60881b602082015260a0830152600060c08301526200011362000b86565b6000815260e0830152600a61010083015260656101208301526200013662000b86565b600081526101408301526200014a62000b86565b600081526101608301526200015e62000b86565b60008152610180830152815180519092906001600160401b038111620005c357600454600181811c9116801562000b56575b6020821014620005a257601f811162000af0575b506020601f821160011462000a81578192939460009262000a75575b50508160011b916000199060031b1c1916176004555b602081015160ff19600554169060ff1617600555604081015191825160018060401b038111620005c357600654600181811c9116801562000a6a575b6020821014620005a257601f811162000a04575b506020601f821160011462000995578192939460009262000989575b50508160011b916000199060031b1c1916176006555b63ffffffff60608301511660075490608084015160201b64ff00000000169164ffffffffff1916171760075560a082015191825160018060401b038111620005c357600854600181811c911680156200097e575b6020821014620005a257601f811162000918575b506020601f8211600114620008a957819293946000926200089d575b50508160011b916000199060031b1c1916176008555b60c081015160095560e081015180519092906001600160401b038111620005c357600a54600181811c9116801562000892575b6020821014620005a257601f81116200082c575b506020601f8211600114620007bd5781929394600092620007b1575b50508160011b916000199060031b1c191617600a555b610100820151600b55610120820151600c5561014082015180519092906001600160401b038111620005c357600d54600181811c91168015620007a6575b6020821014620005a257601f81116200074d575b506020601f8211600114620006d45781929394600092620006c8575b50508160011b916000199060031b1c191617600d555b6101608101518051906001600160401b038211620005c357600e54600181811c91168015620006bd575b6020821014620005a257601f811162000664575b50602090601f8311600114620005e55761018093929160009183620005d9575b50508160011b916000199060031b1c191617600e555b015180519091906001600160401b038111620005c3578154600181811c91168015620005b8575b6020821014620005a257601f811162000555575b50602092601f8211600114620004ec5792819293600092620004e0575b50508160011b916000199060031b1c19161790555b604051611623908162000ba78239f35b015190503880620004bb565b601f198216938360005260206000209160005b8681106200053c575083600195961062000522575b505050811b019055620004d0565b015160001960f88460031b161c1916905538808062000514565b91926020600181928685015181550194019201620004ff565b826000526020600020601f830160051c8101916020841062000597575b601f0160051c01905b8181106200058a57506200049e565b600081556001016200057b565b909150819062000572565b634e487b7160e01b600052602260045260246000fd5b90607f16906200048a565b634e487b7160e01b600052604160045260246000fd5b0151905038806200044d565b600e6000908152600080516020620021ca833981519152929190601f198516905b8181106200064b57509160019391856101809796941062000631575b505050811b01600e5562000463565b015160001960f88460031b161c1916905538808062000622565b9293602060018192878601518155019501930162000606565b600e600052600080516020620021ca833981519152601f840160051c81019160208510620006b2575b601f0160051c01905b818110620006a557506200042d565b6000815560010162000696565b90915081906200068d565b90607f169062000419565b015190503880620003d9565b600d6000908152600080516020620021ea8339815191529190601f198416905b81811062000734575095836001959697106200071a575b505050811b01600d55620003ef565b015160001960f88460031b161c191690553880806200070b565b9192602060018192868b015181550194019201620006f4565b600d600052600080516020620021ea833981519152601f830160051c810191602084106200079b575b601f0160051c01905b8181106200078e5750620003bd565b600081556001016200077f565b909150819062000776565b90607f1690620003a9565b01519050388062000355565b600a60005260206000209060005b601f1984168110620008135750600193949583601f19811610620007f9575b505050811b01600a556200036b565b015160001960f88460031b161c19169055388080620007ea565b9091602060018192858a015181550193019101620007cb565b600a6000527fc65a7bb8d6351c1cf70c95a316cc6a92839c986682d98bc35f958f4883f9d2a8601f830160051c8101602084106200088a575b601f830160051c820181106200087d57505062000339565b6000815560010162000865565b508062000865565b90607f169062000325565b015190503880620002dc565b600860005260206000209060005b601f1984168110620008ff5750600193949583601f19811610620008e5575b505050811b01600855620002f2565b015160001960f88460031b161c19169055388080620008d6565b9091602060018192858a015181550193019101620008b7565b60086000527ff3f7a9fe364faab93b216da50a3214154f22a0a2b415b23a84c8169e8b636ee3601f830160051c81016020841062000976575b601f830160051c8201811062000969575050620002c0565b6000815560010162000951565b508062000951565b90607f1690620002ac565b01519050388062000242565b600660005260206000209060005b601f1984168110620009eb5750600193949583601f19811610620009d1575b505050811b0160065562000258565b015160001960f88460031b161c19169055388080620009c2565b9091602060018192858a015181550193019101620009a3565b60066000527ff652222313e28459528d920b65115c16c04f3efc82aaedc97be59f3f377c0d3f601f830160051c81016020841062000a62575b601f830160051c8201811062000a5557505062000226565b6000815560010162000a3d565b508062000a3d565b90607f169062000212565b015190503880620001c0565b600460005260206000209060005b601f198416811062000ad75750600193949583601f1981161062000abd575b505050811b01600455620001d6565b015160001960f88460031b161c1916905538808062000aae565b9091602060018192858a01518155019301910162000a8f565b60046000527f8a35acfbc15ff81a39ae7d344fd709f28e8600b4aa8c65c6b64bfe7fe36bd19b601f830160051c81016020841062000b4e575b601f830160051c8201811062000b41575050620001a4565b6000815560010162000b29565b508062000b29565b90607f169062000190565b600080fd5b60408051919082016001600160401b03811183821017620005c357604052565b60405190602082016001600160401b03811183821017620005c35760405256fe6080604052600436101561001257600080fd5b6000803560e01c8063469c8110146107c25780634cecd88e146103ab57806354a470fc1461016b5780637a7f01a7146100995763e21f37ce1461005457600080fd5b3461009657806003193601126100965761009260405161007e81610077816113e6565b03826112dd565b60405191829160208352602083019061136c565b0390f35b80fd5b5034610096578060031936011261009657604051908082600354916100bd836113ac565b9283835260209460019186600182169182600014610149575050600114610101575b50506100ed925003836112dd565b61009260405192828493845283019061136c565b90859250600382526000805160206115ce8339815191525b8583106101315750506100ed935082010138806100df565b80548389018501528794508693909201918101610119565b92509350506100ed94915060ff191682840152151560051b82010138806100df565b503461009657602090816003193601126100965760405161018b816112ab565b6001926001825280835b818110610395575050604051906101ab826112ab565b6040516101bb81610077816113e6565b82526002916002549267ffffffffffffffff841161038157928591879394600592604051916101ef888360051b01846112dd565b81835260028652857f405787fa12a823e0f2b7631cc41b3ba8828b3321ca811111fa75cd3aa3bb5ace8985015b84831061032c57505050505085820152610235866115aa565b5261023f856115aa565b5060405193808501918186528651809352604086018260408560051b89010198019480925b85841061027157888a0389f35b909192939495968099603f198a8203018552868951918161029b845160408452604084019061136c565b9301519082818503910152805180845282840190838082891b870101930194885b878382106102e0575050505050819250990194019401929594939190989698610264565b91939561031a81929496601f198782030189528951908361030a835160408452604084019061136c565b920151908481840391015261136c565b970195019101918b94959391926102bc565b98838b829d9b60409d9a9b9d51610342816112ab565b60405161035381610077818a61149b565b81526040516103688161007781898b0161149b565b838201528152019201920191909a989a9997969961021c565b634e487b7160e01b86526041600452602486fd5b61039d611591565b828286010152018190610195565b5034610096576003199060603683011261009657602480359067ffffffffffffffff908183116107be57610160809584360301126107be57604051948501858110838211176107ab5760405282600401358281116107a35761041390600436918601016112ff565b8552808301358281116107a35761043090600436918601016112ff565b9460209384820196875260448101358481116107a75761045690600436918401016112ff565b604083015260648101358481116107a75761047790600436918401016112ff565b6060830152608481013584811681036107a757608083015260a48101358481116107a7576104ab90600436918401016112ff565b60a083015260c48101358481116107a7576104cc90600436918401016112ff565b60c083015260e48101358481116107a757610144610140926104f761052893600436918401016112ff565b60e0860152610509610104820161135b565b61010086015261051c610124820161135b565b6101208601520161135b565b9101526044358281116107a3576105439036906004016112ff565b84549095906001600160a01b031633036107685785511561068557508451918211610673575060039161057683546113ac565b601f811161062e575b5080601f83116001146105c15750819084956105b19495926105b6575b50508160011b916000199060031b1c19161790565b905580f35b01519050388061059c565b838552601f198316956000805160206115ce833981519152929186905b888210610616575050836001959697106105fe575b505050811b01905580f35b015160001983861b60f8161c191690553880806105f3565b806001859682949686015181550195019301906105de565b610663908486526000805160206115ce833981519152601f850160051c810191848610610669575b601f0160051c0190611531565b3861057f565b9091508190610656565b634e487b7160e01b8452604160045283fd5b51805190955091821161067357506003916106a083546113ac565b601f811161072e575b5080601f83116001146106da5750819084956105b19495926105b65750508160011b916000199060031b1c19161790565b838552601f198316956000805160206115ce833981519152929186905b888210610716575050836001959697106105fe57505050811b01905580f35b806001859682949686015181550195019301906106f7565b610762908486526000805160206115ce833981519152601f850160051c81019184861061066957601f0160051c0190611531565b386106a9565b60405162461bcd60e51b8152600481018590526014818401527343616c6c6572206973206e6f74206f7261636c6560601b6044820152606490fd5b8480fd5b8680fd5b50634e487b7160e01b8452604160045283fd5b8380fd5b50346100965760203660031901126100965760043567ffffffffffffffff81116112a7576107f49036906004016112ff565b90604051610801816112ab565b60048152633ab9b2b960e11b602082015261081a611591565b5060405192610828846112ab565b60018452825b60208110611290575060405191610844836112ab565b825261085660208301948086526115aa565b5160405190610864826112ab565b60048252631d195e1d60e21b602083015252602061088285516115aa565b5101525191825167ffffffffffffffff81116111ad576108a36001546113ac565b601f8111611242575b506020601f82116001146111c157819084956108dd9495926105b65750508160011b916000199060031b1c19161790565b6001555b518051906801000000000000000082116111ad576002548260025580831061110f575b50602001600283527f405787fa12a823e0f2b7631cc41b3ba8828b3321ca811111fa75cd3aa3bb5ace83915b838310610eca578460018060a01b0381541660405190633c38a5f560e01b8252826004830152604060248301526101a06044830152818380600454610974816113ac565b806101e486015261020491600181169081600014610eb05750600114610e56575b505060058054830b60648501526043198483038101608486015260065484936109bd826113ac565b8082529160018116908115610e365750600114610dd6575b505060075463ffffffff811660a487015260201c840b60c4860152848303810160e48601526008548493610a08826113ac565b8082529160018116908115610db65750600114610d56575b50506009546101048601528483038101610124860152600a548493610a44826113ac565b8082529160018116908115610d365750600114610cd6575b5050600b54610144860152600c546101648601528483038101610184860152600d548493610a89826113ac565b8082529160018116908115610cb65750600114610c56575b505084830381016101a4860152600e548493610abc826113ac565b8082529160018116908115610c365750600114610bd6575b5050848303016101c48501528291600f54610aee816113ac565b8083529260018216918215610bb3575050600114610b55575b50506020939183809203925af18015610b4a57610b22575080f35b602090813d8311610b43575b610b3881836112dd565b810103126100965780f35b503d610b2e565b6040513d84823e3d90fd5b600f8452839250907f8d1108e10bcb7c27dddfc02ed9d693a074039d026cf4ea4240b40f7d581ac8025b818410610b93575050016020018183610b07565b600191955060209294508054838587010152019101909185938793610b7f565b60ff1916602084810191909152931515901b909101909101915082905083610b07565b600e86529193508491907fbb7b4a454dc3493923482f07822329ed19e8244eff582cc204f8554c3620c3fd5b818410610c1757505001602001918880610ad4565b805460208486018101919091528a98508b975090930192600101610c02565b9050602093955060ff9291921916838301521515831b0101918880610ad4565b600d86529193508491907fd7b6990105719101dabeb77144f2a3385c8033acd3af97e9423a695e81ad1eb55b818410610c9757505001602001918880610aa1565b805460208486018101919091528a98508b975090930192600101610c82565b9050602093955060ff9291921916838301521515831b0101918880610aa1565b600a86529193508491907fc65a7bb8d6351c1cf70c95a316cc6a92839c986682d98bc35f958f4883f9d2a85b818410610d1757505001602001918880610a5c565b805460208486018101919091528a98508b975090930192600101610d02565b9050602093955060ff9291921916838301521515831b0101918880610a5c565b600886529193508491907ff3f7a9fe364faab93b216da50a3214154f22a0a2b415b23a84c8169e8b636ee35b818410610d9757505001602001918880610a20565b805460208486018101919091528a98508b975090930192600101610d82565b9050602093955060ff9291921916838301521515831b0101918880610a20565b600686529193508491907ff652222313e28459528d920b65115c16c04f3efc82aaedc97be59f3f377c0d3f5b818410610e17575050016020019188806109d5565b805460208486018101919091528a98508b975090930192600101610e02565b9050602093955060ff9291921916838301521515831b01019188806109d5565b6004845290915082907f8a35acfbc15ff81a39ae7d344fd709f28e8600b4aa8c65c6b64bfe7fe36bd19b5b818310610e945750508301018680610995565b8054838901850152879550889450602090920191600101610e81565b60ff19168684015250151560051b84010190508680610995565b8051805180519067ffffffffffffffff82116110fb57610eea85546113ac565b601f81116110cb575b50602090601f8311600114611061579180610f2792602095948b926105b65750508160011b916000199060031b1c19161790565b84555b015180519067ffffffffffffffff821161104d57610f4b60018501546113ac565b601f811161100f575b50602090601f8311600114610f9d5792610f8c836002946020946001978c926105b65750508160011b916000199060031b1c19161790565b848601555b01920192019190610930565b906001850188526020882091885b601f1985168110610ff7575083602093600196938793600297601f19811610610fde575b505050811b0184860155610f91565b015160001960f88460031b161c19169055388080610fcf565b91926020600181928685015181550194019201610fab565b61103d90600186018952602089206005601f8601811c82019260208710611043575b601f01901c0190611531565b38610f54565b9192508291611031565b634e487b7160e01b87526041600452602487fd5b908589526020892091895b601f19851681106110b3575091839160019360209695601f1981161061109a575b505050811b018455610f2a565b015160001960f88460031b161c1916905538808061108d565b9192602060018192868501518155019401920161106c565b6110f590868a5260208a206005601f8601811c8201926020871061104357601f01901c0190611531565b38610ef3565b634e487b7160e01b88526041600452602488fd5b6001600160ff1b038181168203611199578316830361118557600284527f405787fa12a823e0f2b7631cc41b3ba8828b3321ca811111fa75cd3aa3bb5ace9060011b8101908360011b015b8181106111675750610904565b80611173600292611548565b61117f60018201611548565b0161115a565b634e487b7160e01b84526011600452602484fd5b634e487b7160e01b85526011600452602485fd5b634e487b7160e01b83526041600452602483fd5b600184527fb10e2d527612073b26eecdfd717e6a320cf44b4afac2b0732d9fcbe2b7fa0cf690601f198316855b81811061122a57509583600195969710611211575b505050811b016001556108e1565b015160001960f88460031b161c19169055388080611203565b9192602060018192868b0151815501940192016111ee565b61128a90600185527fb10e2d527612073b26eecdfd717e6a320cf44b4afac2b0732d9fcbe2b7fa0cf6601f840160051c8101916020851061066957601f0160051c0190611531565b386108ac565b60209061129b611591565b8282880101520161082e565b5080fd5b6040810190811067ffffffffffffffff8211176112c757604052565b634e487b7160e01b600052604160045260246000fd5b90601f8019910116810190811067ffffffffffffffff8211176112c757604052565b81601f820112156113565780359067ffffffffffffffff82116112c75760405192611334601f8401601f1916602001856112dd565b8284526020838301011161135657816000926020809301838601378301015290565b600080fd5b359063ffffffff8216820361135657565b919082519283825260005b848110611398575050826000602080949584010152601f8019910116010190565b602081830181015184830182015201611377565b90600182811c921680156113dc575b60208310146113c657565b634e487b7160e01b600052602260045260246000fd5b91607f16916113bb565b906000916001906001546113f9816113ac565b8083529260209160018116908115611476575060011461141a575b50505050565b9293945060016000527fb10e2d527612073b26eecdfd717e6a320cf44b4afac2b0732d9fcbe2b7fa0cf6926000935b858510611463575050506020925001019038808080611414565b8054858501840152938201938101611449565b92505050602093945060ff929192191683830152151560051b01019038808080611414565b8054600093926114aa826113ac565b9182825260209360019160018116908160001461151257506001146114d1575b5050505050565b90939495506000929192528360002092846000945b8386106114fe575050505001019038808080806114ca565b8054858701830152940193859082016114e6565b60ff19168685015250505090151560051b0101915038808080806114ca565b81811061153c575050565b60008155600101611531565b61155281546113ac565b908161155c575050565b81601f6000931160011461156e575055565b90808391825261158d601f60208420940160051c840160018501611531565b5555565b6040519061159e826112ab565b60606020838281520152565b8051156115b75760200190565b634e487b7160e01b600052603260045260246000fdfec2575a0e9e593c00f959f8c92f12db2869c3395a3b0502d05e2516446f71f85ba26469706673582212204f68e19c586b321fc608630c85e3bdd42866cd128a6ae91d155ffb7a8cde650064736f6c63430008180033bb7b4a454dc3493923482f07822329ed19e8244eff582cc204f8554c3620c3fdd7b6990105719101dabeb77144f2a3385c8033acd3af97e9423a695e81ad1eb5",
          "opcodes": "PUSH1 0x80 CALLVALUE PUSH3 0xB61 JUMPI PUSH1 0x1F PUSH3 0x220A CODESIZE DUP2 SWAP1 SUB SWAP2 DUP3 ADD PUSH1 0x1F NOT AND DUP4 ADD SWAP2 PUSH1 0x1 PUSH1 0x1 PUSH1 0x40 SHL SUB DUP4 GT DUP5 DUP5 LT OR PUSH3 0x5C3 JUMPI DUP1 DUP5 SWAP3 PUSH1 0x20 SWAP5 PUSH1 0x40 MSTORE DUP4 CODECOPY DUP2 ADD SUB SLT PUSH3 0xB61 JUMPI MLOAD PUSH1 0x1 PUSH1 0x1 PUSH1 0xA0 SHL SUB DUP2 AND SWAP1 DUP2 SWAP1 SUB PUSH3 0xB61 JUMPI PUSH1 0x0 DUP1 SLOAD PUSH1 0x1 PUSH1 0x1 PUSH1 0xA0 SHL SUB NOT AND SWAP2 SWAP1 SWAP2 OR SWAP1 SSTORE PUSH1 0x40 MLOAD PUSH2 0x1A0 DUP2 ADD PUSH1 0x1 PUSH1 0x1 PUSH1 0x40 SHL SUB DUP2 GT DUP3 DUP3 LT OR PUSH3 0x5C3 JUMPI PUSH1 0x40 MSTORE PUSH3 0x92 PUSH3 0xB66 JUMP JUMPDEST PUSH1 0xB DUP2 MSTORE PUSH11 0x6770742D342D747572626F PUSH1 0xA8 SHL PUSH1 0x20 DUP3 ADD MSTORE DUP2 MSTORE PUSH1 0x15 PUSH1 0x20 DUP3 ADD MSTORE PUSH3 0xBD PUSH3 0xB86 JUMP JUMPDEST PUSH1 0x0 DUP2 MSTORE PUSH1 0x40 DUP3 ADD MSTORE PUSH2 0x3E8 PUSH1 0x60 DUP3 ADD MSTORE PUSH1 0x15 PUSH1 0x80 DUP3 ADD MSTORE PUSH3 0xDF PUSH3 0xB66 JUMP JUMPDEST PUSH1 0xF SWAP1 DUP2 DUP2 MSTORE PUSH15 0x7B2274797065223A2274657874227D PUSH1 0x88 SHL PUSH1 0x20 DUP3 ADD MSTORE PUSH1 0xA0 DUP4 ADD MSTORE PUSH1 0x0 PUSH1 0xC0 DUP4 ADD MSTORE PUSH3 0x113 PUSH3 0xB86 JUMP JUMPDEST PUSH1 0x0 DUP2 MSTORE PUSH1 0xE0 DUP4 ADD MSTORE PUSH1 0xA PUSH2 0x100 DUP4 ADD MSTORE PUSH1 0x65 PUSH2 0x120 DUP4 ADD MSTORE PUSH3 0x136 PUSH3 0xB86 JUMP JUMPDEST PUSH1 0x0 DUP2 MSTORE PUSH2 0x140 DUP4 ADD MSTORE PUSH3 0x14A PUSH3 0xB86 JUMP JUMPDEST PUSH1 0x0 DUP2 MSTORE PUSH2 0x160 DUP4 ADD MSTORE PUSH3 0x15E PUSH3 0xB86 JUMP JUMPDEST PUSH1 0x0 DUP2 MSTORE PUSH2 0x180 DUP4 ADD MSTORE DUP2 MLOAD DUP1 MLOAD SWAP1 SWAP3 SWAP1 PUSH1 0x1 PUSH1 0x1 PUSH1 0x40 SHL SUB DUP2 GT PUSH3 0x5C3 JUMPI PUSH1 0x4 SLOAD PUSH1 0x1 DUP2 DUP2 SHR SWAP2 AND DUP1 ISZERO PUSH3 0xB56 JUMPI JUMPDEST PUSH1 0x20 DUP3 LT EQ PUSH3 0x5A2 JUMPI PUSH1 0x1F DUP2 GT PUSH3 0xAF0 JUMPI JUMPDEST POP PUSH1 0x20 PUSH1 0x1F DUP3 GT PUSH1 0x1 EQ PUSH3 0xA81 JUMPI DUP2 SWAP3 SWAP4 SWAP5 PUSH1 0x0 SWAP3 PUSH3 0xA75 JUMPI JUMPDEST POP POP DUP2 PUSH1 0x1 SHL SWAP2 PUSH1 0x0 NOT SWAP1 PUSH1 0x3 SHL SHR NOT AND OR PUSH1 0x4 SSTORE JUMPDEST PUSH1 0x20 DUP2 ADD MLOAD PUSH1 0xFF NOT PUSH1 0x5 SLOAD AND SWAP1 PUSH1 0xFF AND OR PUSH1 0x5 SSTORE PUSH1 0x40 DUP2 ADD MLOAD SWAP2 DUP3 MLOAD PUSH1 0x1 DUP1 PUSH1 0x40 SHL SUB DUP2 GT PUSH3 0x5C3 JUMPI PUSH1 0x6 SLOAD PUSH1 0x1 DUP2 DUP2 SHR SWAP2 AND DUP1 ISZERO PUSH3 0xA6A JUMPI JUMPDEST PUSH1 0x20 DUP3 LT EQ PUSH3 0x5A2 JUMPI PUSH1 0x1F DUP2 GT PUSH3 0xA04 JUMPI JUMPDEST POP PUSH1 0x20 PUSH1 0x1F DUP3 GT PUSH1 0x1 EQ PUSH3 0x995 JUMPI DUP2 SWAP3 SWAP4 SWAP5 PUSH1 0x0 SWAP3 PUSH3 0x989 JUMPI JUMPDEST POP POP DUP2 PUSH1 0x1 SHL SWAP2 PUSH1 0x0 NOT SWAP1 PUSH1 0x3 SHL SHR NOT AND OR PUSH1 0x6 SSTORE JUMPDEST PUSH4 0xFFFFFFFF PUSH1 0x60 DUP4 ADD MLOAD AND PUSH1 0x7 SLOAD SWAP1 PUSH1 0x80 DUP5 ADD MLOAD PUSH1 0x20 SHL PUSH5 0xFF00000000 AND SWAP2 PUSH5 0xFFFFFFFFFF NOT AND OR OR PUSH1 0x7 SSTORE PUSH1 0xA0 DUP3 ADD MLOAD SWAP2 DUP3 MLOAD PUSH1 0x1 DUP1 PUSH1 0x40 SHL SUB DUP2 GT PUSH3 0x5C3 JUMPI PUSH1 0x8 SLOAD PUSH1 0x1 DUP2 DUP2 SHR SWAP2 AND DUP1 ISZERO PUSH3 0x97E JUMPI JUMPDEST PUSH1 0x20 DUP3 LT EQ PUSH3 0x5A2 JUMPI PUSH1 0x1F DUP2 GT PUSH3 0x918 JUMPI JUMPDEST POP PUSH1 0x20 PUSH1 0x1F DUP3 GT PUSH1 0x1 EQ PUSH3 0x8A9 JUMPI DUP2 SWAP3 SWAP4 SWAP5 PUSH1 0x0 SWAP3 PUSH3 0x89D JUMPI JUMPDEST POP POP DUP2 PUSH1 0x1 SHL SWAP2 PUSH1 0x0 NOT SWAP1 PUSH1 0x3 SHL SHR NOT AND OR PUSH1 0x8 SSTORE JUMPDEST PUSH1 0xC0 DUP2 ADD MLOAD PUSH1 0x9 SSTORE PUSH1 0xE0 DUP2 ADD MLOAD DUP1 MLOAD SWAP1 SWAP3 SWAP1 PUSH1 0x1 PUSH1 0x1 PUSH1 0x40 SHL SUB DUP2 GT PUSH3 0x5C3 JUMPI PUSH1 0xA SLOAD PUSH1 0x1 DUP2 DUP2 SHR SWAP2 AND DUP1 ISZERO PUSH3 0x892 JUMPI JUMPDEST PUSH1 0x20 DUP3 LT EQ PUSH3 0x5A2 JUMPI PUSH1 0x1F DUP2 GT PUSH3 0x82C JUMPI JUMPDEST POP PUSH1 0x20 PUSH1 0x1F DUP3 GT PUSH1 0x1 EQ PUSH3 0x7BD JUMPI DUP2 SWAP3 SWAP4 SWAP5 PUSH1 0x0 SWAP3 PUSH3 0x7B1 JUMPI JUMPDEST POP POP DUP2 PUSH1 0x1 SHL SWAP2 PUSH1 0x0 NOT SWAP1 PUSH1 0x3 SHL SHR NOT AND OR PUSH1 0xA SSTORE JUMPDEST PUSH2 0x100 DUP3 ADD MLOAD PUSH1 0xB SSTORE PUSH2 0x120 DUP3 ADD MLOAD PUSH1 0xC SSTORE PUSH2 0x140 DUP3 ADD MLOAD DUP1 MLOAD SWAP1 SWAP3 SWAP1 PUSH1 0x1 PUSH1 0x1 PUSH1 0x40 SHL SUB DUP2 GT PUSH3 0x5C3 JUMPI PUSH1 0xD SLOAD PUSH1 0x1 DUP2 DUP2 SHR SWAP2 AND DUP1 ISZERO PUSH3 0x7A6 JUMPI JUMPDEST PUSH1 0x20 DUP3 LT EQ PUSH3 0x5A2 JUMPI PUSH1 0x1F DUP2 GT PUSH3 0x74D JUMPI JUMPDEST POP PUSH1 0x20 PUSH1 0x1F DUP3 GT PUSH1 0x1 EQ PUSH3 0x6D4 JUMPI DUP2 SWAP3 SWAP4 SWAP5 PUSH1 0x0 SWAP3 PUSH3 0x6C8 JUMPI JUMPDEST POP POP DUP2 PUSH1 0x1 SHL SWAP2 PUSH1 0x0 NOT SWAP1 PUSH1 0x3 SHL SHR NOT AND OR PUSH1 0xD SSTORE JUMPDEST PUSH2 0x160 DUP2 ADD MLOAD DUP1 MLOAD SWAP1 PUSH1 0x1 PUSH1 0x1 PUSH1 0x40 SHL SUB DUP3 GT PUSH3 0x5C3 JUMPI PUSH1 0xE SLOAD PUSH1 0x1 DUP2 DUP2 SHR SWAP2 AND DUP1 ISZERO PUSH3 0x6BD JUMPI JUMPDEST PUSH1 0x20 DUP3 LT EQ PUSH3 0x5A2 JUMPI PUSH1 0x1F DUP2 GT PUSH3 0x664 JUMPI JUMPDEST POP PUSH1 0x20 SWAP1 PUSH1 0x1F DUP4 GT PUSH1 0x1 EQ PUSH3 0x5E5 JUMPI PUSH2 0x180 SWAP4 SWAP3 SWAP2 PUSH1 0x0 SWAP2 DUP4 PUSH3 0x5D9 JUMPI JUMPDEST POP POP DUP2 PUSH1 0x1 SHL SWAP2 PUSH1 0x0 NOT SWAP1 PUSH1 0x3 SHL SHR NOT AND OR PUSH1 0xE SSTORE JUMPDEST ADD MLOAD DUP1 MLOAD SWAP1 SWAP2 SWAP1 PUSH1 0x1 PUSH1 0x1 PUSH1 0x40 SHL SUB DUP2 GT PUSH3 0x5C3 JUMPI DUP2 SLOAD PUSH1 0x1 DUP2 DUP2 SHR SWAP2 AND DUP1 ISZERO PUSH3 0x5B8 JUMPI JUMPDEST PUSH1 0x20 DUP3 LT EQ PUSH3 0x5A2 JUMPI PUSH1 0x1F DUP2 GT PUSH3 0x555 JUMPI JUMPDEST POP PUSH1 0x20 SWAP3 PUSH1 0x1F DUP3 GT PUSH1 0x1 EQ PUSH3 0x4EC JUMPI SWAP3 DUP2 SWAP3 SWAP4 PUSH1 0x0 SWAP3 PUSH3 0x4E0 JUMPI JUMPDEST POP POP DUP2 PUSH1 0x1 SHL SWAP2 PUSH1 0x0 NOT SWAP1 PUSH1 0x3 SHL SHR NOT AND OR SWAP1 SSTORE JUMPDEST PUSH1 0x40 MLOAD PUSH2 0x1623 SWAP1 DUP2 PUSH3 0xBA7 DUP3 CODECOPY RETURN JUMPDEST ADD MLOAD SWAP1 POP CODESIZE DUP1 PUSH3 0x4BB JUMP JUMPDEST PUSH1 0x1F NOT DUP3 AND SWAP4 DUP4 PUSH1 0x0 MSTORE PUSH1 0x20 PUSH1 0x0 KECCAK256 SWAP2 PUSH1 0x0 JUMPDEST DUP7 DUP2 LT PUSH3 0x53C JUMPI POP DUP4 PUSH1 0x1 SWAP6 SWAP7 LT PUSH3 0x522 JUMPI JUMPDEST POP POP POP DUP2 SHL ADD SWAP1 SSTORE PUSH3 0x4D0 JUMP JUMPDEST ADD MLOAD PUSH1 0x0 NOT PUSH1 0xF8 DUP5 PUSH1 0x3 SHL AND SHR NOT AND SWAP1 SSTORE CODESIZE DUP1 DUP1 PUSH3 0x514 JUMP JUMPDEST SWAP2 SWAP3 PUSH1 0x20 PUSH1 0x1 DUP2 SWAP3 DUP7 DUP6 ADD MLOAD DUP2 SSTORE ADD SWAP5 ADD SWAP3 ADD PUSH3 0x4FF JUMP JUMPDEST DUP3 PUSH1 0x0 MSTORE PUSH1 0x20 PUSH1 0x0 KECCAK256 PUSH1 0x1F DUP4 ADD PUSH1 0x5 SHR DUP2 ADD SWAP2 PUSH1 0x20 DUP5 LT PUSH3 0x597 JUMPI JUMPDEST PUSH1 0x1F ADD PUSH1 0x5 SHR ADD SWAP1 JUMPDEST DUP2 DUP2 LT PUSH3 0x58A JUMPI POP PUSH3 0x49E JUMP JUMPDEST PUSH1 0x0 DUP2 SSTORE PUSH1 0x1 ADD PUSH3 0x57B JUMP JUMPDEST SWAP1 SWAP2 POP DUP2 SWAP1 PUSH3 0x572 JUMP JUMPDEST PUSH4 0x4E487B71 PUSH1 0xE0 SHL PUSH1 0x0 MSTORE PUSH1 0x22 PUSH1 0x4 MSTORE PUSH1 0x24 PUSH1 0x0 REVERT JUMPDEST SWAP1 PUSH1 0x7F AND SWAP1 PUSH3 0x48A JUMP JUMPDEST PUSH4 0x4E487B71 PUSH1 0xE0 SHL PUSH1 0x0 MSTORE PUSH1 0x41 PUSH1 0x4 MSTORE PUSH1 0x24 PUSH1 0x0 REVERT JUMPDEST ADD MLOAD SWAP1 POP CODESIZE DUP1 PUSH3 0x44D JUMP JUMPDEST PUSH1 0xE PUSH1 0x0 SWAP1 DUP2 MSTORE PUSH1 0x0 DUP1 MLOAD PUSH1 0x20 PUSH3 0x21CA DUP4 CODECOPY DUP2 MLOAD SWAP2 MSTORE SWAP3 SWAP2 SWAP1 PUSH1 0x1F NOT DUP6 AND SWAP1 JUMPDEST DUP2 DUP2 LT PUSH3 0x64B JUMPI POP SWAP2 PUSH1 0x1 SWAP4 SWAP2 DUP6 PUSH2 0x180 SWAP8 SWAP7 SWAP5 LT PUSH3 0x631 JUMPI JUMPDEST POP POP POP DUP2 SHL ADD PUSH1 0xE SSTORE PUSH3 0x463 JUMP JUMPDEST ADD MLOAD PUSH1 0x0 NOT PUSH1 0xF8 DUP5 PUSH1 0x3 SHL AND SHR NOT AND SWAP1 SSTORE CODESIZE DUP1 DUP1 PUSH3 0x622 JUMP JUMPDEST SWAP3 SWAP4 PUSH1 0x20 PUSH1 0x1 DUP2 SWAP3 DUP8 DUP7 ADD MLOAD DUP2 SSTORE ADD SWAP6 ADD SWAP4 ADD PUSH3 0x606 JUMP JUMPDEST PUSH1 0xE PUSH1 0x0 MSTORE PUSH1 0x0 DUP1 MLOAD PUSH1 0x20 PUSH3 0x21CA DUP4 CODECOPY DUP2 MLOAD SWAP2 MSTORE PUSH1 0x1F DUP5 ADD PUSH1 0x5 SHR DUP2 ADD SWAP2 PUSH1 0x20 DUP6 LT PUSH3 0x6B2 JUMPI JUMPDEST PUSH1 0x1F ADD PUSH1 0x5 SHR ADD SWAP1 JUMPDEST DUP2 DUP2 LT PUSH3 0x6A5 JUMPI POP PUSH3 0x42D JUMP JUMPDEST PUSH1 0x0 DUP2 SSTORE PUSH1 0x1 ADD PUSH3 0x696 JUMP JUMPDEST SWAP1 SWAP2 POP DUP2 SWAP1 PUSH3 0x68D JUMP JUMPDEST SWAP1 PUSH1 0x7F AND SWAP1 PUSH3 0x419 JUMP JUMPDEST ADD MLOAD SWAP1 POP CODESIZE DUP1 PUSH3 0x3D9 JUMP JUMPDEST PUSH1 0xD PUSH1 0x0 SWAP1 DUP2 MSTORE PUSH1 0x0 DUP1 MLOAD PUSH1 0x20 PUSH3 0x21EA DUP4 CODECOPY DUP2 MLOAD SWAP2 MSTORE SWAP2 SWAP1 PUSH1 0x1F NOT DUP5 AND SWAP1 JUMPDEST DUP2 DUP2 LT PUSH3 0x734 JUMPI POP SWAP6 DUP4 PUSH1 0x1 SWAP6 SWAP7 SWAP8 LT PUSH3 0x71A JUMPI JUMPDEST POP POP POP DUP2 SHL ADD PUSH1 0xD SSTORE PUSH3 0x3EF JUMP JUMPDEST ADD MLOAD PUSH1 0x0 NOT PUSH1 0xF8 DUP5 PUSH1 0x3 SHL AND SHR NOT AND SWAP1 SSTORE CODESIZE DUP1 DUP1 PUSH3 0x70B JUMP JUMPDEST SWAP2 SWAP3 PUSH1 0x20 PUSH1 0x1 DUP2 SWAP3 DUP7 DUP12 ADD MLOAD DUP2 SSTORE ADD SWAP5 ADD SWAP3 ADD PUSH3 0x6F4 JUMP JUMPDEST PUSH1 0xD PUSH1 0x0 MSTORE PUSH1 0x0 DUP1 MLOAD PUSH1 0x20 PUSH3 0x21EA DUP4 CODECOPY DUP2 MLOAD SWAP2 MSTORE PUSH1 0x1F DUP4 ADD PUSH1 0x5 SHR DUP2 ADD SWAP2 PUSH1 0x20 DUP5 LT PUSH3 0x79B JUMPI JUMPDEST PUSH1 0x1F ADD PUSH1 0x5 SHR ADD SWAP1 JUMPDEST DUP2 DUP2 LT PUSH3 0x78E JUMPI POP PUSH3 0x3BD JUMP JUMPDEST PUSH1 0x0 DUP2 SSTORE PUSH1 0x1 ADD PUSH3 0x77F JUMP JUMPDEST SWAP1 SWAP2 POP DUP2 SWAP1 PUSH3 0x776 JUMP JUMPDEST SWAP1 PUSH1 0x7F AND SWAP1 PUSH3 0x3A9 JUMP JUMPDEST ADD MLOAD SWAP1 POP CODESIZE DUP1 PUSH3 0x355 JUMP JUMPDEST PUSH1 0xA PUSH1 0x0 MSTORE PUSH1 0x20 PUSH1 0x0 KECCAK256 SWAP1 PUSH1 0x0 JUMPDEST PUSH1 0x1F NOT DUP5 AND DUP2 LT PUSH3 0x813 JUMPI POP PUSH1 0x1 SWAP4 SWAP5 SWAP6 DUP4 PUSH1 0x1F NOT DUP2 AND LT PUSH3 0x7F9 JUMPI JUMPDEST POP POP POP DUP2 SHL ADD PUSH1 0xA SSTORE PUSH3 0x36B JUMP JUMPDEST ADD MLOAD PUSH1 0x0 NOT PUSH1 0xF8 DUP5 PUSH1 0x3 SHL AND SHR NOT AND SWAP1 SSTORE CODESIZE DUP1 DUP1 PUSH3 0x7EA JUMP JUMPDEST SWAP1 SWAP2 PUSH1 0x20 PUSH1 0x1 DUP2 SWAP3 DUP6 DUP11 ADD MLOAD DUP2 SSTORE ADD SWAP4 ADD SWAP2 ADD PUSH3 0x7CB JUMP JUMPDEST PUSH1 0xA PUSH1 0x0 MSTORE PUSH32 0xC65A7BB8D6351C1CF70C95A316CC6A92839C986682D98BC35F958F4883F9D2A8 PUSH1 0x1F DUP4 ADD PUSH1 0x5 SHR DUP2 ADD PUSH1 0x20 DUP5 LT PUSH3 0x88A JUMPI JUMPDEST PUSH1 0x1F DUP4 ADD PUSH1 0x5 SHR DUP3 ADD DUP2 LT PUSH3 0x87D JUMPI POP POP PUSH3 0x339 JUMP JUMPDEST PUSH1 0x0 DUP2 SSTORE PUSH1 0x1 ADD PUSH3 0x865 JUMP JUMPDEST POP DUP1 PUSH3 0x865 JUMP JUMPDEST SWAP1 PUSH1 0x7F AND SWAP1 PUSH3 0x325 JUMP JUMPDEST ADD MLOAD SWAP1 POP CODESIZE DUP1 PUSH3 0x2DC JUMP JUMPDEST PUSH1 0x8 PUSH1 0x0 MSTORE PUSH1 0x20 PUSH1 0x0 KECCAK256 SWAP1 PUSH1 0x0 JUMPDEST PUSH1 0x1F NOT DUP5 AND DUP2 LT PUSH3 0x8FF JUMPI POP PUSH1 0x1 SWAP4 SWAP5 SWAP6 DUP4 PUSH1 0x1F NOT DUP2 AND LT PUSH3 0x8E5 JUMPI JUMPDEST POP POP POP DUP2 SHL ADD PUSH1 0x8 SSTORE PUSH3 0x2F2 JUMP JUMPDEST ADD MLOAD PUSH1 0x0 NOT PUSH1 0xF8 DUP5 PUSH1 0x3 SHL AND SHR NOT AND SWAP1 SSTORE CODESIZE DUP1 DUP1 PUSH3 0x8D6 JUMP JUMPDEST SWAP1 SWAP2 PUSH1 0x20 PUSH1 0x1 DUP2 SWAP3 DUP6 DUP11 ADD MLOAD DUP2 SSTORE ADD SWAP4 ADD SWAP2 ADD PUSH3 0x8B7 JUMP JUMPDEST PUSH1 0x8 PUSH1 0x0 MSTORE PUSH32 0xF3F7A9FE364FAAB93B216DA50A3214154F22A0A2B415B23A84C8169E8B636EE3 PUSH1 0x1F DUP4 ADD PUSH1 0x5 SHR DUP2 ADD PUSH1 0x20 DUP5 LT PUSH3 0x976 JUMPI JUMPDEST PUSH1 0x1F DUP4 ADD PUSH1 0x5 SHR DUP3 ADD DUP2 LT PUSH3 0x969 JUMPI POP POP PUSH3 0x2C0 JUMP JUMPDEST PUSH1 0x0 DUP2 SSTORE PUSH1 0x1 ADD PUSH3 0x951 JUMP JUMPDEST POP DUP1 PUSH3 0x951 JUMP JUMPDEST SWAP1 PUSH1 0x7F AND SWAP1 PUSH3 0x2AC JUMP JUMPDEST ADD MLOAD SWAP1 POP CODESIZE DUP1 PUSH3 0x242 JUMP JUMPDEST PUSH1 0x6 PUSH1 0x0 MSTORE PUSH1 0x20 PUSH1 0x0 KECCAK256 SWAP1 PUSH1 0x0 JUMPDEST PUSH1 0x1F NOT DUP5 AND DUP2 LT PUSH3 0x9EB JUMPI POP PUSH1 0x1 SWAP4 SWAP5 SWAP6 DUP4 PUSH1 0x1F NOT DUP2 AND LT PUSH3 0x9D1 JUMPI JUMPDEST POP POP POP DUP2 SHL ADD PUSH1 0x6 SSTORE PUSH3 0x258 JUMP JUMPDEST ADD MLOAD PUSH1 0x0 NOT PUSH1 0xF8 DUP5 PUSH1 0x3 SHL AND SHR NOT AND SWAP1 SSTORE CODESIZE DUP1 DUP1 PUSH3 0x9C2 JUMP JUMPDEST SWAP1 SWAP2 PUSH1 0x20 PUSH1 0x1 DUP2 SWAP3 DUP6 DUP11 ADD MLOAD DUP2 SSTORE ADD SWAP4 ADD SWAP2 ADD PUSH3 0x9A3 JUMP JUMPDEST PUSH1 0x6 PUSH1 0x0 MSTORE PUSH32 0xF652222313E28459528D920B65115C16C04F3EFC82AAEDC97BE59F3F377C0D3F PUSH1 0x1F DUP4 ADD PUSH1 0x5 SHR DUP2 ADD PUSH1 0x20 DUP5 LT PUSH3 0xA62 JUMPI JUMPDEST PUSH1 0x1F DUP4 ADD PUSH1 0x5 SHR DUP3 ADD DUP2 LT PUSH3 0xA55 JUMPI POP POP PUSH3 0x226 JUMP JUMPDEST PUSH1 0x0 DUP2 SSTORE PUSH1 0x1 ADD PUSH3 0xA3D JUMP JUMPDEST POP DUP1 PUSH3 0xA3D JUMP JUMPDEST SWAP1 PUSH1 0x7F AND SWAP1 PUSH3 0x212 JUMP JUMPDEST ADD MLOAD SWAP1 POP CODESIZE DUP1 PUSH3 0x1C0 JUMP JUMPDEST PUSH1 0x4 PUSH1 0x0 MSTORE PUSH1 0x20 PUSH1 0x0 KECCAK256 SWAP1 PUSH1 0x0 JUMPDEST PUSH1 0x1F NOT DUP5 AND DUP2 LT PUSH3 0xAD7 JUMPI POP PUSH1 0x1 SWAP4 SWAP5 SWAP6 DUP4 PUSH1 0x1F NOT DUP2 AND LT PUSH3 0xABD JUMPI JUMPDEST POP POP POP DUP2 SHL ADD PUSH1 0x4 SSTORE PUSH3 0x1D6 JUMP JUMPDEST ADD MLOAD PUSH1 0x0 NOT PUSH1 0xF8 DUP5 PUSH1 0x3 SHL AND SHR NOT AND SWAP1 SSTORE CODESIZE DUP1 DUP1 PUSH3 0xAAE JUMP JUMPDEST SWAP1 SWAP2 PUSH1 0x20 PUSH1 0x1 DUP2 SWAP3 DUP6 DUP11 ADD MLOAD DUP2 SSTORE ADD SWAP4 ADD SWAP2 ADD PUSH3 0xA8F JUMP JUMPDEST PUSH1 0x4 PUSH1 0x0 MSTORE PUSH32 0x8A35ACFBC15FF81A39AE7D344FD709F28E8600B4AA8C65C6B64BFE7FE36BD19B PUSH1 0x1F DUP4 ADD PUSH1 0x5 SHR DUP2 ADD PUSH1 0x20 DUP5 LT PUSH3 0xB4E JUMPI JUMPDEST PUSH1 0x1F DUP4 ADD PUSH1 0x5 SHR DUP3 ADD DUP2 LT PUSH3 0xB41 JUMPI POP POP PUSH3 0x1A4 JUMP JUMPDEST PUSH1 0x0 DUP2 SSTORE PUSH1 0x1 ADD PUSH3 0xB29 JUMP JUMPDEST POP DUP1 PUSH3 0xB29 JUMP JUMPDEST SWAP1 PUSH1 0x7F AND SWAP1 PUSH3 0x190 JUMP JUMPDEST PUSH1 0x0 DUP1 REVERT JUMPDEST PUSH1 0x40 DUP1 MLOAD SWAP2 SWAP1 DUP3 ADD PUSH1 0x1 PUSH1 0x1 PUSH1 0x40 SHL SUB DUP2 GT DUP4 DUP3 LT OR PUSH3 0x5C3 JUMPI PUSH1 0x40 MSTORE JUMP JUMPDEST PUSH1 0x40 MLOAD SWAP1 PUSH1 0x20 DUP3 ADD PUSH1 0x1 PUSH1 0x1 PUSH1 0x40 SHL SUB DUP2 GT DUP4 DUP3 LT OR PUSH3 0x5C3 JUMPI PUSH1 0x40 MSTORE JUMP INVALID PUSH1 0x80 PUSH1 0x40 MSTORE PUSH1 0x4 CALLDATASIZE LT ISZERO PUSH2 0x12 JUMPI PUSH1 0x0 DUP1 REVERT JUMPDEST PUSH1 0x0 DUP1 CALLDATALOAD PUSH1 0xE0 SHR DUP1 PUSH4 0x469C8110 EQ PUSH2 0x7C2 JUMPI DUP1 PUSH4 0x4CECD88E EQ PUSH2 0x3AB JUMPI DUP1 PUSH4 0x54A470FC EQ PUSH2 0x16B JUMPI DUP1 PUSH4 0x7A7F01A7 EQ PUSH2 0x99 JUMPI PUSH4 0xE21F37CE EQ PUSH2 0x54 JUMPI PUSH1 0x0 DUP1 REVERT JUMPDEST CALLVALUE PUSH2 0x96 JUMPI DUP1 PUSH1 0x3 NOT CALLDATASIZE ADD SLT PUSH2 0x96 JUMPI PUSH2 0x92 PUSH1 0x40 MLOAD PUSH2 0x7E DUP2 PUSH2 0x77 DUP2 PUSH2 0x13E6 JUMP JUMPDEST SUB DUP3 PUSH2 0x12DD JUMP JUMPDEST PUSH1 0x40 MLOAD SWAP2 DUP3 SWAP2 PUSH1 0x20 DUP4 MSTORE PUSH1 0x20 DUP4 ADD SWAP1 PUSH2 0x136C JUMP JUMPDEST SUB SWAP1 RETURN JUMPDEST DUP1 REVERT JUMPDEST POP CALLVALUE PUSH2 0x96 JUMPI DUP1 PUSH1 0x3 NOT CALLDATASIZE ADD SLT PUSH2 0x96 JUMPI PUSH1 0x40 MLOAD SWAP1 DUP1 DUP3 PUSH1 0x3 SLOAD SWAP2 PUSH2 0xBD DUP4 PUSH2 0x13AC JUMP JUMPDEST SWAP3 DUP4 DUP4 MSTORE PUSH1 0x20 SWAP5 PUSH1 0x1 SWAP2 DUP7 PUSH1 0x1 DUP3 AND SWAP2 DUP3 PUSH1 0x0 EQ PUSH2 0x149 JUMPI POP POP PUSH1 0x1 EQ PUSH2 0x101 JUMPI JUMPDEST POP POP PUSH2 0xED SWAP3 POP SUB DUP4 PUSH2 0x12DD JUMP JUMPDEST PUSH2 0x92 PUSH1 0x40 MLOAD SWAP3 DUP3 DUP5 SWAP4 DUP5 MSTORE DUP4 ADD SWAP1 PUSH2 0x136C JUMP JUMPDEST SWAP1 DUP6 SWAP3 POP PUSH1 0x3 DUP3 MSTORE PUSH1 0x0 DUP1 MLOAD PUSH1 0x20 PUSH2 0x15CE DUP4 CODECOPY DUP2 MLOAD SWAP2 MSTORE JUMPDEST DUP6 DUP4 LT PUSH2 0x131 JUMPI POP POP PUSH2 0xED SWAP4 POP DUP3 ADD ADD CODESIZE DUP1 PUSH2 0xDF JUMP JUMPDEST DUP1 SLOAD DUP4 DUP10 ADD DUP6 ADD MSTORE DUP8 SWAP5 POP DUP7 SWAP4 SWAP1 SWAP3 ADD SWAP2 DUP2 ADD PUSH2 0x119 JUMP JUMPDEST SWAP3 POP SWAP4 POP POP PUSH2 0xED SWAP5 SWAP2 POP PUSH1 0xFF NOT AND DUP3 DUP5 ADD MSTORE ISZERO ISZERO PUSH1 0x5 SHL DUP3 ADD ADD CODESIZE DUP1 PUSH2 0xDF JUMP JUMPDEST POP CALLVALUE PUSH2 0x96 JUMPI PUSH1 0x20 SWAP1 DUP2 PUSH1 0x3 NOT CALLDATASIZE ADD SLT PUSH2 0x96 JUMPI PUSH1 0x40 MLOAD PUSH2 0x18B DUP2 PUSH2 0x12AB JUMP JUMPDEST PUSH1 0x1 SWAP3 PUSH1 0x1 DUP3 MSTORE DUP1 DUP4 JUMPDEST DUP2 DUP2 LT PUSH2 0x395 JUMPI POP POP PUSH1 0x40 MLOAD SWAP1 PUSH2 0x1AB DUP3 PUSH2 0x12AB JUMP JUMPDEST PUSH1 0x40 MLOAD PUSH2 0x1BB DUP2 PUSH2 0x77 DUP2 PUSH2 0x13E6 JUMP JUMPDEST DUP3 MSTORE PUSH1 0x2 SWAP2 PUSH1 0x2 SLOAD SWAP3 PUSH8 0xFFFFFFFFFFFFFFFF DUP5 GT PUSH2 0x381 JUMPI SWAP3 DUP6 SWAP2 DUP8 SWAP4 SWAP5 PUSH1 0x5 SWAP3 PUSH1 0x40 MLOAD SWAP2 PUSH2 0x1EF DUP9 DUP4 PUSH1 0x5 SHL ADD DUP5 PUSH2 0x12DD JUMP JUMPDEST DUP2 DUP4 MSTORE PUSH1 0x2 DUP7 MSTORE DUP6 PUSH32 0x405787FA12A823E0F2B7631CC41B3BA8828B3321CA811111FA75CD3AA3BB5ACE DUP10 DUP6 ADD JUMPDEST DUP5 DUP4 LT PUSH2 0x32C JUMPI POP POP POP POP POP DUP6 DUP3 ADD MSTORE PUSH2 0x235 DUP7 PUSH2 0x15AA JUMP JUMPDEST MSTORE PUSH2 0x23F DUP6 PUSH2 0x15AA JUMP JUMPDEST POP PUSH1 0x40 MLOAD SWAP4 DUP1 DUP6 ADD SWAP2 DUP2 DUP7 MSTORE DUP7 MLOAD DUP1 SWAP4 MSTORE PUSH1 0x40 DUP7 ADD DUP3 PUSH1 0x40 DUP6 PUSH1 0x5 SHL DUP10 ADD ADD SWAP9 ADD SWAP5 DUP1 SWAP3 JUMPDEST DUP6 DUP5 LT PUSH2 0x271 JUMPI DUP9 DUP11 SUB DUP10 RETURN JUMPDEST SWAP1 SWAP2 SWAP3 SWAP4 SWAP5 SWAP6 SWAP7 DUP1 SWAP10 PUSH1 0x3F NOT DUP11 DUP3 SUB ADD DUP6 MSTORE DUP7 DUP10 MLOAD SWAP2 DUP2 PUSH2 0x29B DUP5 MLOAD PUSH1 0x40 DUP5 MSTORE PUSH1 0x40 DUP5 ADD SWAP1 PUSH2 0x136C JUMP JUMPDEST SWAP4 ADD MLOAD SWAP1 DUP3 DUP2 DUP6 SUB SWAP2 ADD MSTORE DUP1 MLOAD DUP1 DUP5 MSTORE DUP3 DUP5 ADD SWAP1 DUP4 DUP1 DUP3 DUP10 SHL DUP8 ADD ADD SWAP4 ADD SWAP5 DUP9 JUMPDEST DUP8 DUP4 DUP3 LT PUSH2 0x2E0 JUMPI POP POP POP POP POP DUP2 SWAP3 POP SWAP10 ADD SWAP5 ADD SWAP5 ADD SWAP3 SWAP6 SWAP5 SWAP4 SWAP2 SWAP1 SWAP9 SWAP7 SWAP9 PUSH2 0x264 JUMP JUMPDEST SWAP2 SWAP4 SWAP6 PUSH2 0x31A DUP2 SWAP3 SWAP5 SWAP7 PUSH1 0x1F NOT DUP8 DUP3 SUB ADD DUP10 MSTORE DUP10 MLOAD SWAP1 DUP4 PUSH2 0x30A DUP4 MLOAD PUSH1 0x40 DUP5 MSTORE PUSH1 0x40 DUP5 ADD SWAP1 PUSH2 0x136C JUMP JUMPDEST SWAP3 ADD MLOAD SWAP1 DUP5 DUP2 DUP5 SUB SWAP2 ADD MSTORE PUSH2 0x136C JUMP JUMPDEST SWAP8 ADD SWAP6 ADD SWAP2 ADD SWAP2 DUP12 SWAP5 SWAP6 SWAP4 SWAP2 SWAP3 PUSH2 0x2BC JUMP JUMPDEST SWAP9 DUP4 DUP12 DUP3 SWAP14 SWAP12 PUSH1 0x40 SWAP14 SWAP11 SWAP12 SWAP14 MLOAD PUSH2 0x342 DUP2 PUSH2 0x12AB JUMP JUMPDEST PUSH1 0x40 MLOAD PUSH2 0x353 DUP2 PUSH2 0x77 DUP2 DUP11 PUSH2 0x149B JUMP JUMPDEST DUP2 MSTORE PUSH1 0x40 MLOAD PUSH2 0x368 DUP2 PUSH2 0x77 DUP2 DUP10 DUP12 ADD PUSH2 0x149B JUMP JUMPDEST DUP4 DUP3 ADD MSTORE DUP2 MSTORE ADD SWAP3 ADD SWAP3 ADD SWAP2 SWAP1 SWAP11 SWAP9 SWAP11 SWAP10 SWAP8 SWAP7 SWAP10 PUSH2 0x21C JUMP JUMPDEST PUSH4 0x4E487B71 PUSH1 0xE0 SHL DUP7 MSTORE PUSH1 0x41 PUSH1 0x4 MSTORE PUSH1 0x24 DUP7 REVERT JUMPDEST PUSH2 0x39D PUSH2 0x1591 JUMP JUMPDEST DUP3 DUP3 DUP7 ADD ADD MSTORE ADD DUP2 SWAP1 PUSH2 0x195 JUMP JUMPDEST POP CALLVALUE PUSH2 0x96 JUMPI PUSH1 0x3 NOT SWAP1 PUSH1 0x60 CALLDATASIZE DUP4 ADD SLT PUSH2 0x96 JUMPI PUSH1 0x24 DUP1 CALLDATALOAD SWAP1 PUSH8 0xFFFFFFFFFFFFFFFF SWAP1 DUP2 DUP4 GT PUSH2 0x7BE JUMPI PUSH2 0x160 DUP1 SWAP6 DUP5 CALLDATASIZE SUB ADD SLT PUSH2 0x7BE JUMPI PUSH1 0x40 MLOAD SWAP5 DUP6 ADD DUP6 DUP2 LT DUP4 DUP3 GT OR PUSH2 0x7AB JUMPI PUSH1 0x40 MSTORE DUP3 PUSH1 0x4 ADD CALLDATALOAD DUP3 DUP2 GT PUSH2 0x7A3 JUMPI PUSH2 0x413 SWAP1 PUSH1 0x4 CALLDATASIZE SWAP2 DUP7 ADD ADD PUSH2 0x12FF JUMP JUMPDEST DUP6 MSTORE DUP1 DUP4 ADD CALLDATALOAD DUP3 DUP2 GT PUSH2 0x7A3 JUMPI PUSH2 0x430 SWAP1 PUSH1 0x4 CALLDATASIZE SWAP2 DUP7 ADD ADD PUSH2 0x12FF JUMP JUMPDEST SWAP5 PUSH1 0x20 SWAP4 DUP5 DUP3 ADD SWAP7 DUP8 MSTORE PUSH1 0x44 DUP2 ADD CALLDATALOAD DUP5 DUP2 GT PUSH2 0x7A7 JUMPI PUSH2 0x456 SWAP1 PUSH1 0x4 CALLDATASIZE SWAP2 DUP5 ADD ADD PUSH2 0x12FF JUMP JUMPDEST PUSH1 0x40 DUP4 ADD MSTORE PUSH1 0x64 DUP2 ADD CALLDATALOAD DUP5 DUP2 GT PUSH2 0x7A7 JUMPI PUSH2 0x477 SWAP1 PUSH1 0x4 CALLDATASIZE SWAP2 DUP5 ADD ADD PUSH2 0x12FF JUMP JUMPDEST PUSH1 0x60 DUP4 ADD MSTORE PUSH1 0x84 DUP2 ADD CALLDATALOAD DUP5 DUP2 AND DUP2 SUB PUSH2 0x7A7 JUMPI PUSH1 0x80 DUP4 ADD MSTORE PUSH1 0xA4 DUP2 ADD CALLDATALOAD DUP5 DUP2 GT PUSH2 0x7A7 JUMPI PUSH2 0x4AB SWAP1 PUSH1 0x4 CALLDATASIZE SWAP2 DUP5 ADD ADD PUSH2 0x12FF JUMP JUMPDEST PUSH1 0xA0 DUP4 ADD MSTORE PUSH1 0xC4 DUP2 ADD CALLDATALOAD DUP5 DUP2 GT PUSH2 0x7A7 JUMPI PUSH2 0x4CC SWAP1 PUSH1 0x4 CALLDATASIZE SWAP2 DUP5 ADD ADD PUSH2 0x12FF JUMP JUMPDEST PUSH1 0xC0 DUP4 ADD MSTORE PUSH1 0xE4 DUP2 ADD CALLDATALOAD DUP5 DUP2 GT PUSH2 0x7A7 JUMPI PUSH2 0x144 PUSH2 0x140 SWAP3 PUSH2 0x4F7 PUSH2 0x528 SWAP4 PUSH1 0x4 CALLDATASIZE SWAP2 DUP5 ADD ADD PUSH2 0x12FF JUMP JUMPDEST PUSH1 0xE0 DUP7 ADD MSTORE PUSH2 0x509 PUSH2 0x104 DUP3 ADD PUSH2 0x135B JUMP JUMPDEST PUSH2 0x100 DUP7 ADD MSTORE PUSH2 0x51C PUSH2 0x124 DUP3 ADD PUSH2 0x135B JUMP JUMPDEST PUSH2 0x120 DUP7 ADD MSTORE ADD PUSH2 0x135B JUMP JUMPDEST SWAP2 ADD MSTORE PUSH1 0x44 CALLDATALOAD DUP3 DUP2 GT PUSH2 0x7A3 JUMPI PUSH2 0x543 SWAP1 CALLDATASIZE SWAP1 PUSH1 0x4 ADD PUSH2 0x12FF JUMP JUMPDEST DUP5 SLOAD SWAP1 SWAP6 SWAP1 PUSH1 0x1 PUSH1 0x1 PUSH1 0xA0 SHL SUB AND CALLER SUB PUSH2 0x768 JUMPI DUP6 MLOAD ISZERO PUSH2 0x685 JUMPI POP DUP5 MLOAD SWAP2 DUP3 GT PUSH2 0x673 JUMPI POP PUSH1 0x3 SWAP2 PUSH2 0x576 DUP4 SLOAD PUSH2 0x13AC JUMP JUMPDEST PUSH1 0x1F DUP2 GT PUSH2 0x62E JUMPI JUMPDEST POP DUP1 PUSH1 0x1F DUP4 GT PUSH1 0x1 EQ PUSH2 0x5C1 JUMPI POP DUP2 SWAP1 DUP5 SWAP6 PUSH2 0x5B1 SWAP5 SWAP6 SWAP3 PUSH2 0x5B6 JUMPI JUMPDEST POP POP DUP2 PUSH1 0x1 SHL SWAP2 PUSH1 0x0 NOT SWAP1 PUSH1 0x3 SHL SHR NOT AND OR SWAP1 JUMP JUMPDEST SWAP1 SSTORE DUP1 RETURN JUMPDEST ADD MLOAD SWAP1 POP CODESIZE DUP1 PUSH2 0x59C JUMP JUMPDEST DUP4 DUP6 MSTORE PUSH1 0x1F NOT DUP4 AND SWAP6 PUSH1 0x0 DUP1 MLOAD PUSH1 0x20 PUSH2 0x15CE DUP4 CODECOPY DUP2 MLOAD SWAP2 MSTORE SWAP3 SWAP2 DUP7 SWAP1 JUMPDEST DUP9 DUP3 LT PUSH2 0x616 JUMPI POP POP DUP4 PUSH1 0x1 SWAP6 SWAP7 SWAP8 LT PUSH2 0x5FE JUMPI JUMPDEST POP POP POP DUP2 SHL ADD SWAP1 SSTORE DUP1 RETURN JUMPDEST ADD MLOAD PUSH1 0x0 NOT DUP4 DUP7 SHL PUSH1 0xF8 AND SHR NOT AND SWAP1 SSTORE CODESIZE DUP1 DUP1 PUSH2 0x5F3 JUMP JUMPDEST DUP1 PUSH1 0x1 DUP6 SWAP7 DUP3 SWAP5 SWAP7 DUP7 ADD MLOAD DUP2 SSTORE ADD SWAP6 ADD SWAP4 ADD SWAP1 PUSH2 0x5DE JUMP JUMPDEST PUSH2 0x663 SWAP1 DUP5 DUP7 MSTORE PUSH1 0x0 DUP1 MLOAD PUSH1 0x20 PUSH2 0x15CE DUP4 CODECOPY DUP2 MLOAD SWAP2 MSTORE PUSH1 0x1F DUP6 ADD PUSH1 0x5 SHR DUP2 ADD SWAP2 DUP5 DUP7 LT PUSH2 0x669 JUMPI JUMPDEST PUSH1 0x1F ADD PUSH1 0x5 SHR ADD SWAP1 PUSH2 0x1531 JUMP JUMPDEST CODESIZE PUSH2 0x57F JUMP JUMPDEST SWAP1 SWAP2 POP DUP2 SWAP1 PUSH2 0x656 JUMP JUMPDEST PUSH4 0x4E487B71 PUSH1 0xE0 SHL DUP5 MSTORE PUSH1 0x41 PUSH1 0x4 MSTORE DUP4 REVERT JUMPDEST MLOAD DUP1 MLOAD SWAP1 SWAP6 POP SWAP2 DUP3 GT PUSH2 0x673 JUMPI POP PUSH1 0x3 SWAP2 PUSH2 0x6A0 DUP4 SLOAD PUSH2 0x13AC JUMP JUMPDEST PUSH1 0x1F DUP2 GT PUSH2 0x72E JUMPI JUMPDEST POP DUP1 PUSH1 0x1F DUP4 GT PUSH1 0x1 EQ PUSH2 0x6DA JUMPI POP DUP2 SWAP1 DUP5 SWAP6 PUSH2 0x5B1 SWAP5 SWAP6 SWAP3 PUSH2 0x5B6 JUMPI POP POP DUP2 PUSH1 0x1 SHL SWAP2 PUSH1 0x0 NOT SWAP1 PUSH1 0x3 SHL SHR NOT AND OR SWAP1 JUMP JUMPDEST DUP4 DUP6 MSTORE PUSH1 0x1F NOT DUP4 AND SWAP6 PUSH1 0x0 DUP1 MLOAD PUSH1 0x20 PUSH2 0x15CE DUP4 CODECOPY DUP2 MLOAD SWAP2 MSTORE SWAP3 SWAP2 DUP7 SWAP1 JUMPDEST DUP9 DUP3 LT PUSH2 0x716 JUMPI POP POP DUP4 PUSH1 0x1 SWAP6 SWAP7 SWAP8 LT PUSH2 0x5FE JUMPI POP POP POP DUP2 SHL ADD SWAP1 SSTORE DUP1 RETURN JUMPDEST DUP1 PUSH1 0x1 DUP6 SWAP7 DUP3 SWAP5 SWAP7 DUP7 ADD MLOAD DUP2 SSTORE ADD SWAP6 ADD SWAP4 ADD SWAP1 PUSH2 0x6F7 JUMP JUMPDEST PUSH2 0x762 SWAP1 DUP5 DUP7 MSTORE PUSH1 0x0 DUP1 MLOAD PUSH1 0x20 PUSH2 0x15CE DUP4 CODECOPY DUP2 MLOAD SWAP2 MSTORE PUSH1 0x1F DUP6 ADD PUSH1 0x5 SHR DUP2 ADD SWAP2 DUP5 DUP7 LT PUSH2 0x669 JUMPI PUSH1 0x1F ADD PUSH1 0x5 SHR ADD SWAP1 PUSH2 0x1531 JUMP JUMPDEST CODESIZE PUSH2 0x6A9 JUMP JUMPDEST PUSH1 0x40 MLOAD PUSH3 0x461BCD PUSH1 0xE5 SHL DUP2 MSTORE PUSH1 0x4 DUP2 ADD DUP6 SWAP1 MSTORE PUSH1 0x14 DUP2 DUP5 ADD MSTORE PUSH20 0x43616C6C6572206973206E6F74206F7261636C65 PUSH1 0x60 SHL PUSH1 0x44 DUP3 ADD MSTORE PUSH1 0x64 SWAP1 REVERT JUMPDEST DUP5 DUP1 REVERT JUMPDEST DUP7 DUP1 REVERT JUMPDEST POP PUSH4 0x4E487B71 PUSH1 0xE0 SHL DUP5 MSTORE PUSH1 0x41 PUSH1 0x4 MSTORE DUP4 REVERT JUMPDEST DUP4 DUP1 REVERT JUMPDEST POP CALLVALUE PUSH2 0x96 JUMPI PUSH1 0x20 CALLDATASIZE PUSH1 0x3 NOT ADD SLT PUSH2 0x96 JUMPI PUSH1 0x4 CALLDATALOAD PUSH8 0xFFFFFFFFFFFFFFFF DUP2 GT PUSH2 0x12A7 JUMPI PUSH2 0x7F4 SWAP1 CALLDATASIZE SWAP1 PUSH1 0x4 ADD PUSH2 0x12FF JUMP JUMPDEST SWAP1 PUSH1 0x40 MLOAD PUSH2 0x801 DUP2 PUSH2 0x12AB JUMP JUMPDEST PUSH1 0x4 DUP2 MSTORE PUSH4 0x3AB9B2B9 PUSH1 0xE1 SHL PUSH1 0x20 DUP3 ADD MSTORE PUSH2 0x81A PUSH2 0x1591 JUMP JUMPDEST POP PUSH1 0x40 MLOAD SWAP3 PUSH2 0x828 DUP5 PUSH2 0x12AB JUMP JUMPDEST PUSH1 0x1 DUP5 MSTORE DUP3 JUMPDEST PUSH1 0x20 DUP2 LT PUSH2 0x1290 JUMPI POP PUSH1 0x40 MLOAD SWAP2 PUSH2 0x844 DUP4 PUSH2 0x12AB JUMP JUMPDEST DUP3 MSTORE PUSH2 0x856 PUSH1 0x20 DUP4 ADD SWAP5 DUP1 DUP7 MSTORE PUSH2 0x15AA JUMP JUMPDEST MLOAD PUSH1 0x40 MLOAD SWAP1 PUSH2 0x864 DUP3 PUSH2 0x12AB JUMP JUMPDEST PUSH1 0x4 DUP3 MSTORE PUSH4 0x1D195E1D PUSH1 0xE2 SHL PUSH1 0x20 DUP4 ADD MSTORE MSTORE PUSH1 0x20 PUSH2 0x882 DUP6 MLOAD PUSH2 0x15AA JUMP JUMPDEST MLOAD ADD MSTORE MLOAD SWAP2 DUP3 MLOAD PUSH8 0xFFFFFFFFFFFFFFFF DUP2 GT PUSH2 0x11AD JUMPI PUSH2 0x8A3 PUSH1 0x1 SLOAD PUSH2 0x13AC JUMP JUMPDEST PUSH1 0x1F DUP2 GT PUSH2 0x1242 JUMPI JUMPDEST POP PUSH1 0x20 PUSH1 0x1F DUP3 GT PUSH1 0x1 EQ PUSH2 0x11C1 JUMPI DUP2 SWAP1 DUP5 SWAP6 PUSH2 0x8DD SWAP5 SWAP6 SWAP3 PUSH2 0x5B6 JUMPI POP POP DUP2 PUSH1 0x1 SHL SWAP2 PUSH1 0x0 NOT SWAP1 PUSH1 0x3 SHL SHR NOT AND OR SWAP1 JUMP JUMPDEST PUSH1 0x1 SSTORE JUMPDEST MLOAD DUP1 MLOAD SWAP1 PUSH9 0x10000000000000000 DUP3 GT PUSH2 0x11AD JUMPI PUSH1 0x2 SLOAD DUP3 PUSH1 0x2 SSTORE DUP1 DUP4 LT PUSH2 0x110F JUMPI JUMPDEST POP PUSH1 0x20 ADD PUSH1 0x2 DUP4 MSTORE PUSH32 0x405787FA12A823E0F2B7631CC41B3BA8828B3321CA811111FA75CD3AA3BB5ACE DUP4 SWAP2 JUMPDEST DUP4 DUP4 LT PUSH2 0xECA JUMPI DUP5 PUSH1 0x1 DUP1 PUSH1 0xA0 SHL SUB DUP2 SLOAD AND PUSH1 0x40 MLOAD SWAP1 PUSH4 0x3C38A5F5 PUSH1 0xE0 SHL DUP3 MSTORE DUP3 PUSH1 0x4 DUP4 ADD MSTORE PUSH1 0x40 PUSH1 0x24 DUP4 ADD MSTORE PUSH2 0x1A0 PUSH1 0x44 DUP4 ADD MSTORE DUP2 DUP4 DUP1 PUSH1 0x4 SLOAD PUSH2 0x974 DUP2 PUSH2 0x13AC JUMP JUMPDEST DUP1 PUSH2 0x1E4 DUP7 ADD MSTORE PUSH2 0x204 SWAP2 PUSH1 0x1 DUP2 AND SWAP1 DUP2 PUSH1 0x0 EQ PUSH2 0xEB0 JUMPI POP PUSH1 0x1 EQ PUSH2 0xE56 JUMPI JUMPDEST POP POP PUSH1 0x5 DUP1 SLOAD DUP4 SIGNEXTEND PUSH1 0x64 DUP6 ADD MSTORE PUSH1 0x43 NOT DUP5 DUP4 SUB DUP2 ADD PUSH1 0x84 DUP7 ADD MSTORE PUSH1 0x6 SLOAD DUP5 SWAP4 PUSH2 0x9BD DUP3 PUSH2 0x13AC JUMP JUMPDEST DUP1 DUP3 MSTORE SWAP2 PUSH1 0x1 DUP2 AND SWAP1 DUP2 ISZERO PUSH2 0xE36 JUMPI POP PUSH1 0x1 EQ PUSH2 0xDD6 JUMPI JUMPDEST POP POP PUSH1 0x7 SLOAD PUSH4 0xFFFFFFFF DUP2 AND PUSH1 0xA4 DUP8 ADD MSTORE PUSH1 0x20 SHR DUP5 SIGNEXTEND PUSH1 0xC4 DUP7 ADD MSTORE DUP5 DUP4 SUB DUP2 ADD PUSH1 0xE4 DUP7 ADD MSTORE PUSH1 0x8 SLOAD DUP5 SWAP4 PUSH2 0xA08 DUP3 PUSH2 0x13AC JUMP JUMPDEST DUP1 DUP3 MSTORE SWAP2 PUSH1 0x1 DUP2 AND SWAP1 DUP2 ISZERO PUSH2 0xDB6 JUMPI POP PUSH1 0x1 EQ PUSH2 0xD56 JUMPI JUMPDEST POP POP PUSH1 0x9 SLOAD PUSH2 0x104 DUP7 ADD MSTORE DUP5 DUP4 SUB DUP2 ADD PUSH2 0x124 DUP7 ADD MSTORE PUSH1 0xA SLOAD DUP5 SWAP4 PUSH2 0xA44 DUP3 PUSH2 0x13AC JUMP JUMPDEST DUP1 DUP3 MSTORE SWAP2 PUSH1 0x1 DUP2 AND SWAP1 DUP2 ISZERO PUSH2 0xD36 JUMPI POP PUSH1 0x1 EQ PUSH2 0xCD6 JUMPI JUMPDEST POP POP PUSH1 0xB SLOAD PUSH2 0x144 DUP7 ADD MSTORE PUSH1 0xC SLOAD PUSH2 0x164 DUP7 ADD MSTORE DUP5 DUP4 SUB DUP2 ADD PUSH2 0x184 DUP7 ADD MSTORE PUSH1 0xD SLOAD DUP5 SWAP4 PUSH2 0xA89 DUP3 PUSH2 0x13AC JUMP JUMPDEST DUP1 DUP3 MSTORE SWAP2 PUSH1 0x1 DUP2 AND SWAP1 DUP2 ISZERO PUSH2 0xCB6 JUMPI POP PUSH1 0x1 EQ PUSH2 0xC56 JUMPI JUMPDEST POP POP DUP5 DUP4 SUB DUP2 ADD PUSH2 0x1A4 DUP7 ADD MSTORE PUSH1 0xE SLOAD DUP5 SWAP4 PUSH2 0xABC DUP3 PUSH2 0x13AC JUMP JUMPDEST DUP1 DUP3 MSTORE SWAP2 PUSH1 0x1 DUP2 AND SWAP1 DUP2 ISZERO PUSH2 0xC36 JUMPI POP PUSH1 0x1 EQ PUSH2 0xBD6 JUMPI JUMPDEST POP POP DUP5 DUP4 SUB ADD PUSH2 0x1C4 DUP6 ADD MSTORE DUP3 SWAP2 PUSH1 0xF SLOAD PUSH2 0xAEE DUP2 PUSH2 0x13AC JUMP JUMPDEST DUP1 DUP4 MSTORE SWAP3 PUSH1 0x1 DUP3 AND SWAP2 DUP3 ISZERO PUSH2 0xBB3 JUMPI POP POP PUSH1 0x1 EQ PUSH2 0xB55 JUMPI JUMPDEST POP POP PUSH1 0x20 SWAP4 SWAP2 DUP4 DUP1 SWAP3 SUB SWAP3 GAS CALL DUP1 ISZERO PUSH2 0xB4A JUMPI PUSH2 0xB22 JUMPI POP DUP1 RETURN JUMPDEST PUSH1 0x20 SWAP1 DUP2 RETURNDATASIZE DUP4 GT PUSH2 0xB43 JUMPI JUMPDEST PUSH2 0xB38 DUP2 DUP4 PUSH2 0x12DD JUMP JUMPDEST DUP2 ADD SUB SLT PUSH2 0x96 JUMPI DUP1 RETURN JUMPDEST POP RETURNDATASIZE PUSH2 0xB2E JUMP JUMPDEST PUSH1 0x40 MLOAD RETURNDATASIZE DUP5 DUP3 RETURNDATACOPY RETURNDATASIZE SWAP1 REVERT JUMPDEST PUSH1 0xF DUP5 MSTORE DUP4 SWAP3 POP SWAP1 PUSH32 0x8D1108E10BCB7C27DDDFC02ED9D693A074039D026CF4EA4240B40F7D581AC802 JUMPDEST DUP2 DUP5 LT PUSH2 0xB93 JUMPI POP POP ADD PUSH1 0x20 ADD DUP2 DUP4 PUSH2 0xB07 JUMP JUMPDEST PUSH1 0x1 SWAP2 SWAP6 POP PUSH1 0x20 SWAP3 SWAP5 POP DUP1 SLOAD DUP4 DUP6 DUP8 ADD ADD MSTORE ADD SWAP2 ADD SWAP1 SWAP2 DUP6 SWAP4 DUP8 SWAP4 PUSH2 0xB7F JUMP JUMPDEST PUSH1 0xFF NOT AND PUSH1 0x20 DUP5 DUP2 ADD SWAP2 SWAP1 SWAP2 MSTORE SWAP4 ISZERO ISZERO SWAP1 SHL SWAP1 SWAP2 ADD SWAP1 SWAP2 ADD SWAP2 POP DUP3 SWAP1 POP DUP4 PUSH2 0xB07 JUMP JUMPDEST PUSH1 0xE DUP7 MSTORE SWAP2 SWAP4 POP DUP5 SWAP2 SWAP1 PUSH32 0xBB7B4A454DC3493923482F07822329ED19E8244EFF582CC204F8554C3620C3FD JUMPDEST DUP2 DUP5 LT PUSH2 0xC17 JUMPI POP POP ADD PUSH1 0x20 ADD SWAP2 DUP9 DUP1 PUSH2 0xAD4 JUMP JUMPDEST DUP1 SLOAD PUSH1 0x20 DUP5 DUP7 ADD DUP2 ADD SWAP2 SWAP1 SWAP2 MSTORE DUP11 SWAP9 POP DUP12 SWAP8 POP SWAP1 SWAP4 ADD SWAP3 PUSH1 0x1 ADD PUSH2 0xC02 JUMP JUMPDEST SWAP1 POP PUSH1 0x20 SWAP4 SWAP6 POP PUSH1 0xFF SWAP3 SWAP2 SWAP3 NOT AND DUP4 DUP4 ADD MSTORE ISZERO ISZERO DUP4 SHL ADD ADD SWAP2 DUP9 DUP1 PUSH2 0xAD4 JUMP JUMPDEST PUSH1 0xD DUP7 MSTORE SWAP2 SWAP4 POP DUP5 SWAP2 SWAP1 PUSH32 0xD7B6990105719101DABEB77144F2A3385C8033ACD3AF97E9423A695E81AD1EB5 JUMPDEST DUP2 DUP5 LT PUSH2 0xC97 JUMPI POP POP ADD PUSH1 0x20 ADD SWAP2 DUP9 DUP1 PUSH2 0xAA1 JUMP JUMPDEST DUP1 SLOAD PUSH1 0x20 DUP5 DUP7 ADD DUP2 ADD SWAP2 SWAP1 SWAP2 MSTORE DUP11 SWAP9 POP DUP12 SWAP8 POP SWAP1 SWAP4 ADD SWAP3 PUSH1 0x1 ADD PUSH2 0xC82 JUMP JUMPDEST SWAP1 POP PUSH1 0x20 SWAP4 SWAP6 POP PUSH1 0xFF SWAP3 SWAP2 SWAP3 NOT AND DUP4 DUP4 ADD MSTORE ISZERO ISZERO DUP4 SHL ADD ADD SWAP2 DUP9 DUP1 PUSH2 0xAA1 JUMP JUMPDEST PUSH1 0xA DUP7 MSTORE SWAP2 SWAP4 POP DUP5 SWAP2 SWAP1 PUSH32 0xC65A7BB8D6351C1CF70C95A316CC6A92839C986682D98BC35F958F4883F9D2A8 JUMPDEST DUP2 DUP5 LT PUSH2 0xD17 JUMPI POP POP ADD PUSH1 0x20 ADD SWAP2 DUP9 DUP1 PUSH2 0xA5C JUMP JUMPDEST DUP1 SLOAD PUSH1 0x20 DUP5 DUP7 ADD DUP2 ADD SWAP2 SWAP1 SWAP2 MSTORE DUP11 SWAP9 POP DUP12 SWAP8 POP SWAP1 SWAP4 ADD SWAP3 PUSH1 0x1 ADD PUSH2 0xD02 JUMP JUMPDEST SWAP1 POP PUSH1 0x20 SWAP4 SWAP6 POP PUSH1 0xFF SWAP3 SWAP2 SWAP3 NOT AND DUP4 DUP4 ADD MSTORE ISZERO ISZERO DUP4 SHL ADD ADD SWAP2 DUP9 DUP1 PUSH2 0xA5C JUMP JUMPDEST PUSH1 0x8 DUP7 MSTORE SWAP2 SWAP4 POP DUP5 SWAP2 SWAP1 PUSH32 0xF3F7A9FE364FAAB93B216DA50A3214154F22A0A2B415B23A84C8169E8B636EE3 JUMPDEST DUP2 DUP5 LT PUSH2 0xD97 JUMPI POP POP ADD PUSH1 0x20 ADD SWAP2 DUP9 DUP1 PUSH2 0xA20 JUMP JUMPDEST DUP1 SLOAD PUSH1 0x20 DUP5 DUP7 ADD DUP2 ADD SWAP2 SWAP1 SWAP2 MSTORE DUP11 SWAP9 POP DUP12 SWAP8 POP SWAP1 SWAP4 ADD SWAP3 PUSH1 0x1 ADD PUSH2 0xD82 JUMP JUMPDEST SWAP1 POP PUSH1 0x20 SWAP4 SWAP6 POP PUSH1 0xFF SWAP3 SWAP2 SWAP3 NOT AND DUP4 DUP4 ADD MSTORE ISZERO ISZERO DUP4 SHL ADD ADD SWAP2 DUP9 DUP1 PUSH2 0xA20 JUMP JUMPDEST PUSH1 0x6 DUP7 MSTORE SWAP2 SWAP4 POP DUP5 SWAP2 SWAP1 PUSH32 0xF652222313E28459528D920B65115C16C04F3EFC82AAEDC97BE59F3F377C0D3F JUMPDEST DUP2 DUP5 LT PUSH2 0xE17 JUMPI POP POP ADD PUSH1 0x20 ADD SWAP2 DUP9 DUP1 PUSH2 0x9D5 JUMP JUMPDEST DUP1 SLOAD PUSH1 0x20 DUP5 DUP7 ADD DUP2 ADD SWAP2 SWAP1 SWAP2 MSTORE DUP11 SWAP9 POP DUP12 SWAP8 POP SWAP1 SWAP4 ADD SWAP3 PUSH1 0x1 ADD PUSH2 0xE02 JUMP JUMPDEST SWAP1 POP PUSH1 0x20 SWAP4 SWAP6 POP PUSH1 0xFF SWAP3 SWAP2 SWAP3 NOT AND DUP4 DUP4 ADD MSTORE ISZERO ISZERO DUP4 SHL ADD ADD SWAP2 DUP9 DUP1 PUSH2 0x9D5 JUMP JUMPDEST PUSH1 0x4 DUP5 MSTORE SWAP1 SWAP2 POP DUP3 SWAP1 PUSH32 0x8A35ACFBC15FF81A39AE7D344FD709F28E8600B4AA8C65C6B64BFE7FE36BD19B JUMPDEST DUP2 DUP4 LT PUSH2 0xE94 JUMPI POP POP DUP4 ADD ADD DUP7 DUP1 PUSH2 0x995 JUMP JUMPDEST DUP1 SLOAD DUP4 DUP10 ADD DUP6 ADD MSTORE DUP8 SWAP6 POP DUP9 SWAP5 POP PUSH1 0x20 SWAP1 SWAP3 ADD SWAP2 PUSH1 0x1 ADD PUSH2 0xE81 JUMP JUMPDEST PUSH1 0xFF NOT AND DUP7 DUP5 ADD MSTORE POP ISZERO ISZERO PUSH1 0x5 SHL DUP5 ADD ADD SWAP1 POP DUP7 DUP1 PUSH2 0x995 JUMP JUMPDEST DUP1 MLOAD DUP1 MLOAD DUP1 MLOAD SWAP1 PUSH8 0xFFFFFFFFFFFFFFFF DUP3 GT PUSH2 0x10FB JUMPI PUSH2 0xEEA DUP6 SLOAD PUSH2 0x13AC JUMP JUMPDEST PUSH1 0x1F DUP2 GT PUSH2 0x10CB JUMPI JUMPDEST POP PUSH1 0x20 SWAP1 PUSH1 0x1F DUP4 GT PUSH1 0x1 EQ PUSH2 0x1061 JUMPI SWAP2 DUP1 PUSH2 0xF27 SWAP3 PUSH1 0x20 SWAP6 SWAP5 DUP12 SWAP3 PUSH2 0x5B6 JUMPI POP POP DUP2 PUSH1 0x1 SHL SWAP2 PUSH1 0x0 NOT SWAP1 PUSH1 0x3 SHL SHR NOT AND OR SWAP1 JUMP JUMPDEST DUP5 SSTORE JUMPDEST ADD MLOAD DUP1 MLOAD SWAP1 PUSH8 0xFFFFFFFFFFFFFFFF DUP3 GT PUSH2 0x104D JUMPI PUSH2 0xF4B PUSH1 0x1 DUP6 ADD SLOAD PUSH2 0x13AC JUMP JUMPDEST PUSH1 0x1F DUP2 GT PUSH2 0x100F JUMPI JUMPDEST POP PUSH1 0x20 SWAP1 PUSH1 0x1F DUP4 GT PUSH1 0x1 EQ PUSH2 0xF9D JUMPI SWAP3 PUSH2 0xF8C DUP4 PUSH1 0x2 SWAP5 PUSH1 0x20 SWAP5 PUSH1 0x1 SWAP8 DUP13 SWAP3 PUSH2 0x5B6 JUMPI POP POP DUP2 PUSH1 0x1 SHL SWAP2 PUSH1 0x0 NOT SWAP1 PUSH1 0x3 SHL SHR NOT AND OR SWAP1 JUMP JUMPDEST DUP5 DUP7 ADD SSTORE JUMPDEST ADD SWAP3 ADD SWAP3 ADD SWAP2 SWAP1 PUSH2 0x930 JUMP JUMPDEST SWAP1 PUSH1 0x1 DUP6 ADD DUP9 MSTORE PUSH1 0x20 DUP9 KECCAK256 SWAP2 DUP9 JUMPDEST PUSH1 0x1F NOT DUP6 AND DUP2 LT PUSH2 0xFF7 JUMPI POP DUP4 PUSH1 0x20 SWAP4 PUSH1 0x1 SWAP7 SWAP4 DUP8 SWAP4 PUSH1 0x2 SWAP8 PUSH1 0x1F NOT DUP2 AND LT PUSH2 0xFDE JUMPI JUMPDEST POP POP POP DUP2 SHL ADD DUP5 DUP7 ADD SSTORE PUSH2 0xF91 JUMP JUMPDEST ADD MLOAD PUSH1 0x0 NOT PUSH1 0xF8 DUP5 PUSH1 0x3 SHL AND SHR NOT AND SWAP1 SSTORE CODESIZE DUP1 DUP1 PUSH2 0xFCF JUMP JUMPDEST SWAP2 SWAP3 PUSH1 0x20 PUSH1 0x1 DUP2 SWAP3 DUP7 DUP6 ADD MLOAD DUP2 SSTORE ADD SWAP5 ADD SWAP3 ADD PUSH2 0xFAB JUMP JUMPDEST PUSH2 0x103D SWAP1 PUSH1 0x1 DUP7 ADD DUP10 MSTORE PUSH1 0x20 DUP10 KECCAK256 PUSH1 0x5 PUSH1 0x1F DUP7 ADD DUP2 SHR DUP3 ADD SWAP3 PUSH1 0x20 DUP8 LT PUSH2 0x1043 JUMPI JUMPDEST PUSH1 0x1F ADD SWAP1 SHR ADD SWAP1 PUSH2 0x1531 JUMP JUMPDEST CODESIZE PUSH2 0xF54 JUMP JUMPDEST SWAP2 SWAP3 POP DUP3 SWAP2 PUSH2 0x1031 JUMP JUMPDEST PUSH4 0x4E487B71 PUSH1 0xE0 SHL DUP8 MSTORE PUSH1 0x41 PUSH1 0x4 MSTORE PUSH1 0x24 DUP8 REVERT JUMPDEST SWAP1 DUP6 DUP10 MSTORE PUSH1 0x20 DUP10 KECCAK256 SWAP2 DUP10 JUMPDEST PUSH1 0x1F NOT DUP6 AND DUP2 LT PUSH2 0x10B3 JUMPI POP SWAP2 DUP4 SWAP2 PUSH1 0x1 SWAP4 PUSH1 0x20 SWAP7 SWAP6 PUSH1 0x1F NOT DUP2 AND LT PUSH2 0x109A JUMPI JUMPDEST POP POP POP DUP2 SHL ADD DUP5 SSTORE PUSH2 0xF2A JUMP JUMPDEST ADD MLOAD PUSH1 0x0 NOT PUSH1 0xF8 DUP5 PUSH1 0x3 SHL AND SHR NOT AND SWAP1 SSTORE CODESIZE DUP1 DUP1 PUSH2 0x108D JUMP JUMPDEST SWAP2 SWAP3 PUSH1 0x20 PUSH1 0x1 DUP2 SWAP3 DUP7 DUP6 ADD MLOAD DUP2 SSTORE ADD SWAP5 ADD SWAP3 ADD PUSH2 0x106C JUMP JUMPDEST PUSH2 0x10F5 SWAP1 DUP7 DUP11 MSTORE PUSH1 0x20 DUP11 KECCAK256 PUSH1 0x5 PUSH1 0x1F DUP7 ADD DUP2 SHR DUP3 ADD SWAP3 PUSH1 0x20 DUP8 LT PUSH2 0x1043 JUMPI PUSH1 0x1F ADD SWAP1 SHR ADD SWAP1 PUSH2 0x1531 JUMP JUMPDEST CODESIZE PUSH2 0xEF3 JUMP JUMPDEST PUSH4 0x4E487B71 PUSH1 0xE0 SHL DUP9 MSTORE PUSH1 0x41 PUSH1 0x4 MSTORE PUSH1 0x24 DUP9 REVERT JUMPDEST PUSH1 0x1 PUSH1 0x1 PUSH1 0xFF SHL SUB DUP2 DUP2 AND DUP3 SUB PUSH2 0x1199 JUMPI DUP4 AND DUP4 SUB PUSH2 0x1185 JUMPI PUSH1 0x2 DUP5 MSTORE PUSH32 0x405787FA12A823E0F2B7631CC41B3BA8828B3321CA811111FA75CD3AA3BB5ACE SWAP1 PUSH1 0x1 SHL DUP2 ADD SWAP1 DUP4 PUSH1 0x1 SHL ADD JUMPDEST DUP2 DUP2 LT PUSH2 0x1167 JUMPI POP PUSH2 0x904 JUMP JUMPDEST DUP1 PUSH2 0x1173 PUSH1 0x2 SWAP3 PUSH2 0x1548 JUMP JUMPDEST PUSH2 0x117F PUSH1 0x1 DUP3 ADD PUSH2 0x1548 JUMP JUMPDEST ADD PUSH2 0x115A JUMP JUMPDEST PUSH4 0x4E487B71 PUSH1 0xE0 SHL DUP5 MSTORE PUSH1 0x11 PUSH1 0x4 MSTORE PUSH1 0x24 DUP5 REVERT JUMPDEST PUSH4 0x4E487B71 PUSH1 0xE0 SHL DUP6 MSTORE PUSH1 0x11 PUSH1 0x4 MSTORE PUSH1 0x24 DUP6 REVERT JUMPDEST PUSH4 0x4E487B71 PUSH1 0xE0 SHL DUP4 MSTORE PUSH1 0x41 PUSH1 0x4 MSTORE PUSH1 0x24 DUP4 REVERT JUMPDEST PUSH1 0x1 DUP5 MSTORE PUSH32 0xB10E2D527612073B26EECDFD717E6A320CF44B4AFAC2B0732D9FCBE2B7FA0CF6 SWAP1 PUSH1 0x1F NOT DUP4 AND DUP6 JUMPDEST DUP2 DUP2 LT PUSH2 0x122A JUMPI POP SWAP6 DUP4 PUSH1 0x1 SWAP6 SWAP7 SWAP8 LT PUSH2 0x1211 JUMPI JUMPDEST POP POP POP DUP2 SHL ADD PUSH1 0x1 SSTORE PUSH2 0x8E1 JUMP JUMPDEST ADD MLOAD PUSH1 0x0 NOT PUSH1 0xF8 DUP5 PUSH1 0x3 SHL AND SHR NOT AND SWAP1 SSTORE CODESIZE DUP1 DUP1 PUSH2 0x1203 JUMP JUMPDEST SWAP2 SWAP3 PUSH1 0x20 PUSH1 0x1 DUP2 SWAP3 DUP7 DUP12 ADD MLOAD DUP2 SSTORE ADD SWAP5 ADD SWAP3 ADD PUSH2 0x11EE JUMP JUMPDEST PUSH2 0x128A SWAP1 PUSH1 0x1 DUP6 MSTORE PUSH32 0xB10E2D527612073B26EECDFD717E6A320CF44B4AFAC2B0732D9FCBE2B7FA0CF6 PUSH1 0x1F DUP5 ADD PUSH1 0x5 SHR DUP2 ADD SWAP2 PUSH1 0x20 DUP6 LT PUSH2 0x669 JUMPI PUSH1 0x1F ADD PUSH1 0x5 SHR ADD SWAP1 PUSH2 0x1531 JUMP JUMPDEST CODESIZE PUSH2 0x8AC JUMP JUMPDEST PUSH1 0x20 SWAP1 PUSH2 0x129B PUSH2 0x1591 JUMP JUMPDEST DUP3 DUP3 DUP9 ADD ADD MSTORE ADD PUSH2 0x82E JUMP JUMPDEST POP DUP1 REVERT JUMPDEST PUSH1 0x40 DUP2 ADD SWAP1 DUP2 LT PUSH8 0xFFFFFFFFFFFFFFFF DUP3 GT OR PUSH2 0x12C7 JUMPI PUSH1 0x40 MSTORE JUMP JUMPDEST PUSH4 0x4E487B71 PUSH1 0xE0 SHL PUSH1 0x0 MSTORE PUSH1 0x41 PUSH1 0x4 MSTORE PUSH1 0x24 PUSH1 0x0 REVERT JUMPDEST SWAP1 PUSH1 0x1F DUP1 NOT SWAP2 ADD AND DUP2 ADD SWAP1 DUP2 LT PUSH8 0xFFFFFFFFFFFFFFFF DUP3 GT OR PUSH2 0x12C7 JUMPI PUSH1 0x40 MSTORE JUMP JUMPDEST DUP2 PUSH1 0x1F DUP3 ADD SLT ISZERO PUSH2 0x1356 JUMPI DUP1 CALLDATALOAD SWAP1 PUSH8 0xFFFFFFFFFFFFFFFF DUP3 GT PUSH2 0x12C7 JUMPI PUSH1 0x40 MLOAD SWAP3 PUSH2 0x1334 PUSH1 0x1F DUP5 ADD PUSH1 0x1F NOT AND PUSH1 0x20 ADD DUP6 PUSH2 0x12DD JUMP JUMPDEST DUP3 DUP5 MSTORE PUSH1 0x20 DUP4 DUP4 ADD ADD GT PUSH2 0x1356 JUMPI DUP2 PUSH1 0x0 SWAP3 PUSH1 0x20 DUP1 SWAP4 ADD DUP4 DUP7 ADD CALLDATACOPY DUP4 ADD ADD MSTORE SWAP1 JUMP JUMPDEST PUSH1 0x0 DUP1 REVERT JUMPDEST CALLDATALOAD SWAP1 PUSH4 0xFFFFFFFF DUP3 AND DUP3 SUB PUSH2 0x1356 JUMPI JUMP JUMPDEST SWAP2 SWAP1 DUP3 MLOAD SWAP3 DUP4 DUP3 MSTORE PUSH1 0x0 JUMPDEST DUP5 DUP2 LT PUSH2 0x1398 JUMPI POP POP DUP3 PUSH1 0x0 PUSH1 0x20 DUP1 SWAP5 SWAP6 DUP5 ADD ADD MSTORE PUSH1 0x1F DUP1 NOT SWAP2 ADD AND ADD ADD SWAP1 JUMP JUMPDEST PUSH1 0x20 DUP2 DUP4 ADD DUP2 ADD MLOAD DUP5 DUP4 ADD DUP3 ADD MSTORE ADD PUSH2 0x1377 JUMP JUMPDEST SWAP1 PUSH1 0x1 DUP3 DUP2 SHR SWAP3 AND DUP1 ISZERO PUSH2 0x13DC JUMPI JUMPDEST PUSH1 0x20 DUP4 LT EQ PUSH2 0x13C6 JUMPI JUMP JUMPDEST PUSH4 0x4E487B71 PUSH1 0xE0 SHL PUSH1 0x0 MSTORE PUSH1 0x22 PUSH1 0x4 MSTORE PUSH1 0x24 PUSH1 0x0 REVERT JUMPDEST SWAP2 PUSH1 0x7F AND SWAP2 PUSH2 0x13BB JUMP JUMPDEST SWAP1 PUSH1 0x0 SWAP2 PUSH1 0x1 SWAP1 PUSH1 0x1 SLOAD PUSH2 0x13F9 DUP2 PUSH2 0x13AC JUMP JUMPDEST DUP1 DUP4 MSTORE SWAP3 PUSH1 0x20 SWAP2 PUSH1 0x1 DUP2 AND SWAP1 DUP2 ISZERO PUSH2 0x1476 JUMPI POP PUSH1 0x1 EQ PUSH2 0x141A JUMPI JUMPDEST POP POP POP POP JUMP JUMPDEST SWAP3 SWAP4 SWAP5 POP PUSH1 0x1 PUSH1 0x0 MSTORE PUSH32 0xB10E2D527612073B26EECDFD717E6A320CF44B4AFAC2B0732D9FCBE2B7FA0CF6 SWAP3 PUSH1 0x0 SWAP4 JUMPDEST DUP6 DUP6 LT PUSH2 0x1463 JUMPI POP POP POP PUSH1 0x20 SWAP3 POP ADD ADD SWAP1 CODESIZE DUP1 DUP1 DUP1 PUSH2 0x1414 JUMP JUMPDEST DUP1 SLOAD DUP6 DUP6 ADD DUP5 ADD MSTORE SWAP4 DUP3 ADD SWAP4 DUP2 ADD PUSH2 0x1449 JUMP JUMPDEST SWAP3 POP POP POP PUSH1 0x20 SWAP4 SWAP5 POP PUSH1 0xFF SWAP3 SWAP2 SWAP3 NOT AND DUP4 DUP4 ADD MSTORE ISZERO ISZERO PUSH1 0x5 SHL ADD ADD SWAP1 CODESIZE DUP1 DUP1 DUP1 PUSH2 0x1414 JUMP JUMPDEST DUP1 SLOAD PUSH1 0x0 SWAP4 SWAP3 PUSH2 0x14AA DUP3 PUSH2 0x13AC JUMP JUMPDEST SWAP2 DUP3 DUP3 MSTORE PUSH1 0x20 SWAP4 PUSH1 0x1 SWAP2 PUSH1 0x1 DUP2 AND SWAP1 DUP2 PUSH1 0x0 EQ PUSH2 0x1512 JUMPI POP PUSH1 0x1 EQ PUSH2 0x14D1 JUMPI JUMPDEST POP POP POP POP POP JUMP JUMPDEST SWAP1 SWAP4 SWAP5 SWAP6 POP PUSH1 0x0 SWAP3 SWAP2 SWAP3 MSTORE DUP4 PUSH1 0x0 KECCAK256 SWAP3 DUP5 PUSH1 0x0 SWAP5 JUMPDEST DUP4 DUP7 LT PUSH2 0x14FE JUMPI POP POP POP POP ADD ADD SWAP1 CODESIZE DUP1 DUP1 DUP1 DUP1 PUSH2 0x14CA JUMP JUMPDEST DUP1 SLOAD DUP6 DUP8 ADD DUP4 ADD MSTORE SWAP5 ADD SWAP4 DUP6 SWAP1 DUP3 ADD PUSH2 0x14E6 JUMP JUMPDEST PUSH1 0xFF NOT AND DUP7 DUP6 ADD MSTORE POP POP POP SWAP1 ISZERO ISZERO PUSH1 0x5 SHL ADD ADD SWAP2 POP CODESIZE DUP1 DUP1 DUP1 DUP1 PUSH2 0x14CA JUMP JUMPDEST DUP2 DUP2 LT PUSH2 0x153C JUMPI POP POP JUMP JUMPDEST PUSH1 0x0 DUP2 SSTORE PUSH1 0x1 ADD PUSH2 0x1531 JUMP JUMPDEST PUSH2 0x1552 DUP2 SLOAD PUSH2 0x13AC JUMP JUMPDEST SWAP1 DUP2 PUSH2 0x155C JUMPI POP POP JUMP JUMPDEST DUP2 PUSH1 0x1F PUSH1 0x0 SWAP4 GT PUSH1 0x1 EQ PUSH2 0x156E JUMPI POP SSTORE JUMP JUMPDEST SWAP1 DUP1 DUP4 SWAP2 DUP3 MSTORE PUSH2 0x158D PUSH1 0x1F PUSH1 0x20 DUP5 KECCAK256 SWAP5 ADD PUSH1 0x5 SHR DUP5 ADD PUSH1 0x1 DUP6 ADD PUSH2 0x1531 JUMP JUMPDEST SSTORE SSTORE JUMP JUMPDEST PUSH1 0x40 MLOAD SWAP1 PUSH2 0x159E DUP3 PUSH2 0x12AB JUMP JUMPDEST PUSH1 0x60 PUSH1 0x20 DUP4 DUP3 DUP2 MSTORE ADD MSTORE JUMP JUMPDEST DUP1 MLOAD ISZERO PUSH2 0x15B7 JUMPI PUSH1 0x20 ADD SWAP1 JUMP JUMPDEST PUSH4 0x4E487B71 PUSH1 0xE0 SHL PUSH1 0x0 MSTORE PUSH1 0x32 PUSH1 0x4 MSTORE PUSH1 0x24 PUSH1 0x0 REVERT INVALID 0xC2 JUMPI GAS 0xE SWAP15 MSIZE EXTCODECOPY STOP 0xF9 MSIZE 0xF8 0xC9 0x2F SLT 0xDB 0x28 PUSH10 0xC3395A3B0502D05E2516 PREVRANDAO PUSH16 0x71F85BA26469706673582212204F68E1 SWAP13 PC PUSH12 0x321FC608630C85E3BDD42866 0xCD SLT DUP11 PUSH11 0xE91D155FFB7A8CDE650064 PUSH20 0x6F6C63430008180033BB7B4A454DC3493923482F SMOD DUP3 0x23 0x29 0xED NOT 0xE8 0x24 0x4E SELFDESTRUCT PC 0x2C 0xC2 DIV 0xF8 SSTORE 0x4C CALLDATASIZE KECCAK256 0xC3 REVERT 0xD7 0xB6 SWAP10 ADD SDIV PUSH18 0x9101DABEB77144F2A3385C8033ACD3AF97E9 TIMESTAMP GASPRICE PUSH10 0x5E81AD1EB50000000000 "
        },
        "methodIdentifiers": {
          "getMessageHistory(uint256)": "54a470fc",
          "message()": "e21f37ce",
          "onOracleOpenAiLlmResponse(uint256,(string,string,string,string,uint64,string,string,string,uint32,uint32,uint32),string)": "4cecd88e",
          "response()": "7a7f01a7",
          "sendMessage(string)": "469c8110"
        }
      }
    }
  }
}